{
  "contractName": "ApplicantFactory",
  "abi": [
    {
      "constant": false,
      "inputs": [],
      "name": "unpause",
      "outputs": [],
      "payable": false,
      "stateMutability": "nonpayable",
      "type": "function"
    },
    {
      "constant": true,
      "inputs": [],
      "name": "paused",
      "outputs": [
        {
          "name": "",
          "type": "bool"
        }
      ],
      "payable": false,
      "stateMutability": "view",
      "type": "function"
    },
    {
      "constant": false,
      "inputs": [],
      "name": "pause",
      "outputs": [],
      "payable": false,
      "stateMutability": "nonpayable",
      "type": "function"
    },
    {
      "constant": true,
      "inputs": [],
      "name": "owner",
      "outputs": [
        {
          "name": "",
          "type": "address"
        }
      ],
      "payable": false,
      "stateMutability": "view",
      "type": "function"
    },
    {
      "constant": false,
      "inputs": [
        {
          "name": "newOwner",
          "type": "address"
        }
      ],
      "name": "transferOwnership",
      "outputs": [],
      "payable": false,
      "stateMutability": "nonpayable",
      "type": "function"
    },
    {
      "inputs": [],
      "payable": false,
      "stateMutability": "nonpayable",
      "type": "constructor"
    },
    {
      "anonymous": false,
      "inputs": [
        {
          "indexed": false,
          "name": "ApplicantCallerAddress",
          "type": "address"
        },
        {
          "indexed": false,
          "name": "detail",
          "type": "string"
        }
      ],
      "name": "ApplicantEvent",
      "type": "event"
    },
    {
      "anonymous": false,
      "inputs": [],
      "name": "Pause",
      "type": "event"
    },
    {
      "anonymous": false,
      "inputs": [],
      "name": "Unpause",
      "type": "event"
    },
    {
      "anonymous": false,
      "inputs": [
        {
          "indexed": true,
          "name": "previousOwner",
          "type": "address"
        },
        {
          "indexed": true,
          "name": "newOwner",
          "type": "address"
        }
      ],
      "name": "OwnershipTransferred",
      "type": "event"
    },
    {
      "constant": true,
      "inputs": [],
      "name": "getOwner",
      "outputs": [
        {
          "name": "returnedOwner",
          "type": "address"
        }
      ],
      "payable": false,
      "stateMutability": "view",
      "type": "function"
    },
    {
      "constant": false,
      "inputs": [
        {
          "name": "_credentialOrgContractAddress",
          "type": "address"
        }
      ],
      "name": "setAddress",
      "outputs": [],
      "payable": false,
      "stateMutability": "nonpayable",
      "type": "function"
    },
    {
      "constant": false,
      "inputs": [
        {
          "name": "_collegeAddress",
          "type": "address"
        },
        {
          "name": "_SSN",
          "type": "string"
        },
        {
          "name": "_collegeStudentID",
          "type": "string"
        },
        {
          "name": "_firstName",
          "type": "string"
        },
        {
          "name": "_lastName",
          "type": "string"
        }
      ],
      "name": "createApplicant",
      "outputs": [
        {
          "name": "insertSuccess",
          "type": "bool"
        }
      ],
      "payable": false,
      "stateMutability": "nonpayable",
      "type": "function"
    },
    {
      "constant": true,
      "inputs": [
        {
          "name": "_orgAddress",
          "type": "address"
        },
        {
          "name": "_position",
          "type": "uint32"
        }
      ],
      "name": "selectApplicantByOrgAndPosition",
      "outputs": [
        {
          "name": "studentAddress",
          "type": "address"
        },
        {
          "name": "SSN",
          "type": "string"
        },
        {
          "name": "collegeStudentID",
          "type": "string"
        },
        {
          "name": "firstName",
          "type": "string"
        },
        {
          "name": "lastName",
          "type": "string"
        }
      ],
      "payable": false,
      "stateMutability": "view",
      "type": "function"
    },
    {
      "constant": false,
      "inputs": [
        {
          "name": "_position",
          "type": "uint32"
        },
        {
          "name": "_processDetail",
          "type": "string"
        }
      ],
      "name": "updateApplicantByOrgAndPosition",
      "outputs": [
        {
          "name": "updateSuccess",
          "type": "bool"
        }
      ],
      "payable": false,
      "stateMutability": "nonpayable",
      "type": "function"
    },
    {
      "constant": true,
      "inputs": [
        {
          "name": "_orgAddress",
          "type": "address"
        }
      ],
      "name": "selectOrgApplicantCount",
      "outputs": [
        {
          "name": "appCount",
          "type": "uint32"
        }
      ],
      "payable": false,
      "stateMutability": "view",
      "type": "function"
    }
  ],
  "bytecode": "0x608060405260008060146101000a81548160ff02191690831515021790555034801561002a57600080fd5b50336000806101000a81548173ffffffffffffffffffffffffffffffffffffffff021916908373ffffffffffffffffffffffffffffffffffffffff1602179055506127e78061007a6000396000f3006080604052600436106100af576000357c0100000000000000000000000000000000000000000000000000000000900463ffffffff1680631e0beabe146100b45780633f4ba83a146101175780635c975abb1461012e5780638456cb591461015d578063893d20e8146101745780638da5cb5b146101cb578063bbbd083214610222578063d1887dcd146102b3578063e30081a014610426578063f2fde38b14610469578063f76806d9146104ac575b600080fd5b3480156100c057600080fd5b506100f5600480360381019080803573ffffffffffffffffffffffffffffffffffffffff1690602001909291905050506106ef565b604051808263ffffffff1663ffffffff16815260200191505060405180910390f35b34801561012357600080fd5b5061012c61074b565b005b34801561013a57600080fd5b50610143610809565b604051808215151515815260200191505060405180910390f35b34801561016957600080fd5b5061017261081c565b005b34801561018057600080fd5b506101896108dc565b604051808273ffffffffffffffffffffffffffffffffffffffff1673ffffffffffffffffffffffffffffffffffffffff16815260200191505060405180910390f35b3480156101d757600080fd5b506101e0610905565b604051808273ffffffffffffffffffffffffffffffffffffffff1673ffffffffffffffffffffffffffffffffffffffff16815260200191505060405180910390f35b34801561022e57600080fd5b50610299600480360381019080803563ffffffff169060200190929190803590602001908201803590602001908080601f016020809104026020016040519081016040528093929190818152602001838380828437820191505050505050919291929050505061092a565b604051808215151515815260200191505060405180910390f35b3480156102bf57600080fd5b5061040c600480360381019080803573ffffffffffffffffffffffffffffffffffffffff169060200190929190803590602001908201803590602001908080601f0160208091040260200160405190810160405280939291908181526020018383808284378201915050505050509192919290803590602001908201803590602001908080601f0160208091040260200160405190810160405280939291908181526020018383808284378201915050505050509192919290803590602001908201803590602001908080601f0160208091040260200160405190810160405280939291908181526020018383808284378201915050505050509192919290803590602001908201803590602001908080601f01602080910402602001604051908101604052809392919081815260200183838082843782019150505050505091929192905050506110ee565b604051808215151515815260200191505060405180910390f35b34801561043257600080fd5b50610467600480360381019080803573ffffffffffffffffffffffffffffffffffffffff169060200190929190505050611c09565b005b34801561047557600080fd5b506104aa600480360381019080803573ffffffffffffffffffffffffffffffffffffffff169060200190929190505050611d61565b005b3480156104b857600080fd5b506104fd600480360381019080803573ffffffffffffffffffffffffffffffffffffffff169060200190929190803563ffffffff169060200190929190505050611eb6565b604051808673ffffffffffffffffffffffffffffffffffffffff1673ffffffffffffffffffffffffffffffffffffffff16815260200180602001806020018060200180602001858103855289818151815260200191508051906020019080838360005b8381101561057b578082015181840152602081019050610560565b50505050905090810190601f1680156105a85780820380516001836020036101000a031916815260200191505b50858103845288818151815260200191508051906020019080838360005b838110156105e15780820151818401526020810190506105c6565b50505050905090810190601f16801561060e5780820380516001836020036101000a031916815260200191505b50858103835287818151815260200191508051906020019080838360005b8381101561064757808201518184015260208101905061062c565b50505050905090810190601f1680156106745780820380516001836020036101000a031916815260200191505b50858103825286818151815260200191508051906020019080838360005b838110156106ad578082015181840152602081019050610692565b50505050905090810190601f1680156106da5780820380516001836020036101000a031916815260200191505b50995050505050505050505060405180910390f35b6000600260008373ffffffffffffffffffffffffffffffffffffffff1673ffffffffffffffffffffffffffffffffffffffff16815260200190815260200160002060009054906101000a900463ffffffff169050809050919050565b6000809054906101000a900473ffffffffffffffffffffffffffffffffffffffff1673ffffffffffffffffffffffffffffffffffffffff163373ffffffffffffffffffffffffffffffffffffffff161415156107a657600080fd5b600060149054906101000a900460ff1615156107c157600080fd5b60008060146101000a81548160ff0219169083151502179055507f7805862f689e2f13df9f062ff482ad3ad112aca9e0847911ed832e158c525b3360405160405180910390a1565b600060149054906101000a900460ff1681565b6000809054906101000a900473ffffffffffffffffffffffffffffffffffffffff1673ffffffffffffffffffffffffffffffffffffffff163373ffffffffffffffffffffffffffffffffffffffff1614151561087757600080fd5b600060149054906101000a900460ff1615151561089357600080fd5b6001600060146101000a81548160ff0219169083151502179055507f6985a02210a168e66602d3235cb6db0e70f92b3ba4d376a33c0f3d9434bff62560405160405180910390a1565b60008060009054906101000a900473ffffffffffffffffffffffffffffffffffffffff16905090565b6000809054906101000a900473ffffffffffffffffffffffffffffffffffffffff1681565b60008060149054906101000a900460ff1615151561094757600080fd5b600090507fb36a742563e887f4a6f71e730e13a9b469f954882c16205b9367eece125f0cf733604051808273ffffffffffffffffffffffffffffffffffffffff1673ffffffffffffffffffffffffffffffffffffffff16815260200180602001828103825260298152602001807f7570646174654170706c6963616e7442794f7267416e64506f736974696f6e2081526020017f28415454454d50542900000000000000000000000000000000000000000000008152506040019250505060405180910390a160008363ffffffff1610151515610ad8576040517f08c379a00000000000000000000000000000000000000000000000000000000081526004018080602001828103825260418152602001807f7570646174654170706c6963616e7442794f7267416e64506f736974696f6e3a81526020017f204170706c6963616e7420706f736974696f6e207265717569726573203e3d2081526020017f300000000000000000000000000000000000000000000000000000000000000081525060600191505060405180910390fd5b6000825110158015610aec5750600a825111155b1515610bac576040517f08c379a00000000000000000000000000000000000000000000000000000000081526004018080602001828103825260418152602001807f7570646174654170706c6963616e7442794f7267416e64506f736974696f6e3a81526020017f204170706c6963616e742050726f636573732044657461696c204d697373696e81526020017f670000000000000000000000000000000000000000000000000000000000000081525060600191505060405180910390fd5b600460009054906101000a900473ffffffffffffffffffffffffffffffffffffffff16600560006101000a81548173ffffffffffffffffffffffffffffffffffffffff021916908373ffffffffffffffffffffffffffffffffffffffff160217905550600560009054906101000a900473ffffffffffffffffffffffffffffffffffffffff1673ffffffffffffffffffffffffffffffffffffffff1663e1eaee42336040518263ffffffff167c0100000000000000000000000000000000000000000000000000000000028152600401808273ffffffffffffffffffffffffffffffffffffffff1673ffffffffffffffffffffffffffffffffffffffff168152602001915050602060405180830381600087803b158015610ccc57600080fd5b505af1158015610ce0573d6000803e3d6000fd5b505050506040513d6020811015610cf657600080fd5b810190808051906020019092919050505015610ffc57600260003373ffffffffffffffffffffffffffffffffffffffff1673ffffffffffffffffffffffffffffffffffffffff16815260200190815260200160002060009054906101000a900463ffffffff1663ffffffff168363ffffffff161015610f345742600160003373ffffffffffffffffffffffffffffffffffffffff1673ffffffffffffffffffffffffffffffffffffffff1681526020019081526020016000208463ffffffff16815481101515610dc257fe5b906000526020600020906007020160050160046101000a81548163ffffffff021916908363ffffffff16021790555081600160003373ffffffffffffffffffffffffffffffffffffffff1673ffffffffffffffffffffffffffffffffffffffff1681526020019081526020016000208463ffffffff16815481101515610e4457fe5b90600052602060002090600702016006019080519060200190610e68929190612696565b50600190507fb36a742563e887f4a6f71e730e13a9b469f954882c16205b9367eece125f0cf733604051808273ffffffffffffffffffffffffffffffffffffffff1673ffffffffffffffffffffffffffffffffffffffff16815260200180602001828103825260298152602001807f7570646174654170706c6963616e7442794f7267416e64506f736974696f6e2081526020017f28535543434553532900000000000000000000000000000000000000000000008152506040019250505060405180910390a1610ff7565b7fb36a742563e887f4a6f71e730e13a9b469f954882c16205b9367eece125f0cf733604051808273ffffffffffffffffffffffffffffffffffffffff1673ffffffffffffffffffffffffffffffffffffffff16815260200180602001828103825260378152602001807f7570646174654170706c6963616e7442794f7267416e64506f736974696f6e2081526020017f284641494c2920696e76616c696420706f736974696f6e0000000000000000008152506040019250505060405180910390a15b6110e5565b7fb36a742563e887f4a6f71e730e13a9b469f954882c16205b9367eece125f0cf733604051808273ffffffffffffffffffffffffffffffffffffffff1673ffffffffffffffffffffffffffffffffffffffff168152602001806020018281038252604c8152602001807f7570646174654170706c6963616e7442794f7267416e64506f736974696f6e2081526020017f284641494c29206d736773656e646572206973204e4f5420612063726564656e81526020017f7469616c6c696e67206f726700000000000000000000000000000000000000008152506060019250505060405180910390a15b80905092915050565b600080600060149054906101000a900460ff1615151561110d57600080fd5b7fb36a742563e887f4a6f71e730e13a9b469f954882c16205b9367eece125f0cf733604051808273ffffffffffffffffffffffffffffffffffffffff1673ffffffffffffffffffffffffffffffffffffffff16815260200180602001828103825260198152602001807f6372656174654170706c6963616e742028415454454d505429000000000000008152506020019250505060405180910390a160003373ffffffffffffffffffffffffffffffffffffffff16141580156111e7575060008773ffffffffffffffffffffffffffffffffffffffff1614155b1515611281576040517f08c379a000000000000000000000000000000000000000000000000000000000815260040180806020018281038252602e8152602001807f6372656174654170706c6963616e7420284641494c292041646472657373657381526020017f2063616e206e6f7420626520302e00000000000000000000000000000000000081525060400191505060405180910390fd5b60098651141515611320576040517f08c379a000000000000000000000000000000000000000000000000000000000815260040180806020018281038252602b8152602001807f6372656174654170706c6963616e7420284641494c292053534e204c656e677481526020017f6820696e636f727265637400000000000000000000000000000000000000000081525060400191505060405180910390fd5b600985511415156113bf576040517f08c379a00000000000000000000000000000000000000000000000000000000081526004018080602001828103825260368152602001807f6372656174654170706c6963616e7420284641494c29436f6c6c65676520537481526020017f7564656e744944206c656e6774682050726f626c656d0000000000000000000081525060400191505060405180910390fd5b600084511180156113d257506028845111155b151561146c576040517f08c379a000000000000000000000000000000000000000000000000000000000815260040180806020018281038252602f8152602001807f6372656174654170706c6963616e7420284641494c292046697273744e616d6581526020017f206c656e6774682070726f626c656d000000000000000000000000000000000081525060400191505060405180910390fd5b6000835111801561147f57506028835111155b1515611519576040517f08c379a000000000000000000000000000000000000000000000000000000000815260040180806020018281038252602e8152602001807f6372656174654170706c6963616e7420284641494c29204c6173744e616d652081526020017f6c656e6774682070726f626c656d00000000000000000000000000000000000081525060400191505060405180910390fd5b600460009054906101000a900473ffffffffffffffffffffffffffffffffffffffff16600560006101000a81548173ffffffffffffffffffffffffffffffffffffffff021916908373ffffffffffffffffffffffffffffffffffffffff160217905550600560009054906101000a900473ffffffffffffffffffffffffffffffffffffffff1673ffffffffffffffffffffffffffffffffffffffff1663e1eaee42886040518263ffffffff167c0100000000000000000000000000000000000000000000000000000000028152600401808273ffffffffffffffffffffffffffffffffffffffff1673ffffffffffffffffffffffffffffffffffffffff168152602001915050602060405180830381600087803b15801561163957600080fd5b505af115801561164d573d6000803e3d6000fd5b505050506040513d602081101561166357600080fd5b810190808051906020019092919050505015611b135760009150600160008873ffffffffffffffffffffffffffffffffffffffff1673ffffffffffffffffffffffffffffffffffffffff168152602001908152602001600020610100604051908101604052803373ffffffffffffffffffffffffffffffffffffffff1681526020018881526020018781526020018681526020018581526020014263ffffffff168152602001600063ffffffff16815260200160206040519081016040528060008152508152509080600181540180825580915050906001820390600052602060002090600702016000909192909190915060008201518160000160006101000a81548173ffffffffffffffffffffffffffffffffffffffff021916908373ffffffffffffffffffffffffffffffffffffffff16021790555060208201518160010190805190602001906117b8929190612716565b5060408201518160020190805190602001906117d5929190612716565b5060608201518160030190805190602001906117f2929190612716565b50608082015181600401908051906020019061180f929190612716565b5060a08201518160050160006101000a81548163ffffffff021916908363ffffffff16021790555060c08201518160050160046101000a81548163ffffffff021916908363ffffffff16021790555060e082015181600601908051906020019061187a929190612716565b505050905060008163ffffffff16101515611a7157600191506118ad60018263ffffffff1661264790919063ffffffff16565b600360003373ffffffffffffffffffffffffffffffffffffffff1673ffffffffffffffffffffffffffffffffffffffff16815260200190815260200160002060006101000a81548163ffffffff021916908363ffffffff1602179055506119736001600260008a73ffffffffffffffffffffffffffffffffffffffff1673ffffffffffffffffffffffffffffffffffffffff16815260200190815260200160002060009054906101000a900463ffffffff1663ffffffff1661266c90919063ffffffff16565b600260008973ffffffffffffffffffffffffffffffffffffffff1673ffffffffffffffffffffffffffffffffffffffff16815260200190815260200160002060006101000a81548163ffffffff021916908363ffffffff1602179055507fb36a742563e887f4a6f71e730e13a9b469f954882c16205b9367eece125f0cf733604051808273ffffffffffffffffffffffffffffffffffffffff1673ffffffffffffffffffffffffffffffffffffffff16815260200180602001828103825260198152602001807f6372656174654170706c6963616e7420285355434345535329000000000000008152506020019250505060405180910390a1611b0e565b7fb36a742563e887f4a6f71e730e13a9b469f954882c16205b9367eece125f0cf733604051808273ffffffffffffffffffffffffffffffffffffffff1673ffffffffffffffffffffffffffffffffffffffff16815260200180602001828103825260168152602001807f6372656174654170706c6963616e7420284641494c29000000000000000000008152506020019250505060405180910390a15b611bfc565b7fb36a742563e887f4a6f71e730e13a9b469f954882c16205b9367eece125f0cf787604051808273ffffffffffffffffffffffffffffffffffffffff1673ffffffffffffffffffffffffffffffffffffffff16815260200180602001828103825260418152602001807f6372656174654170706c6963616e7420284641494c2920436f6c6c656720417081526020017f706c69656420746f2061646472657373204e4f542043726564657469616c4f7281526020017f67000000000000000000000000000000000000000000000000000000000000008152506060019250505060405180910390a15b8191505095945050505050565b6000809054906101000a900473ffffffffffffffffffffffffffffffffffffffff1673ffffffffffffffffffffffffffffffffffffffff163373ffffffffffffffffffffffffffffffffffffffff16141515611c6457600080fd5b6000809054906101000a900473ffffffffffffffffffffffffffffffffffffffff1673ffffffffffffffffffffffffffffffffffffffff163373ffffffffffffffffffffffffffffffffffffffff161415611cfb5780600460006101000a81548173ffffffffffffffffffffffffffffffffffffffff021916908373ffffffffffffffffffffffffffffffffffffffff1602179055505b600460009054906101000a900473ffffffffffffffffffffffffffffffffffffffff16600560006101000a81548173ffffffffffffffffffffffffffffffffffffffff021916908373ffffffffffffffffffffffffffffffffffffffff16021790555050565b6000809054906101000a900473ffffffffffffffffffffffffffffffffffffffff1673ffffffffffffffffffffffffffffffffffffffff163373ffffffffffffffffffffffffffffffffffffffff16141515611dbc57600080fd5b600073ffffffffffffffffffffffffffffffffffffffff168173ffffffffffffffffffffffffffffffffffffffff1614151515611df857600080fd5b8073ffffffffffffffffffffffffffffffffffffffff166000809054906101000a900473ffffffffffffffffffffffffffffffffffffffff1673ffffffffffffffffffffffffffffffffffffffff167f8be0079c531659141344cd1fd0a4f28419497f9722a3daafe3b4186f6b6457e060405160405180910390a3806000806101000a81548173ffffffffffffffffffffffffffffffffffffffff021916908373ffffffffffffffffffffffffffffffffffffffff16021790555050565b600060608060608060008773ffffffffffffffffffffffffffffffffffffffff1614151515611f73576040517f08c379a00000000000000000000000000000000000000000000000000000000081526004018080602001828103825260218152602001807f4170706c6963616e74206f7267416464726573732063616e206e6f742062652081526020017f300000000000000000000000000000000000000000000000000000000000000081525060400191505060405180910390fd5b600260008873ffffffffffffffffffffffffffffffffffffffff1673ffffffffffffffffffffffffffffffffffffffff16815260200190815260200160002060009054906101000a900463ffffffff1663ffffffff168663ffffffff16101561251b57600160008873ffffffffffffffffffffffffffffffffffffffff1673ffffffffffffffffffffffffffffffffffffffff1681526020019081526020016000208663ffffffff1681548110151561202857fe5b906000526020600020906007020160000160009054906101000a900473ffffffffffffffffffffffffffffffffffffffff169450600160008873ffffffffffffffffffffffffffffffffffffffff1673ffffffffffffffffffffffffffffffffffffffff1681526020019081526020016000208663ffffffff168154811015156120ae57fe5b90600052602060002090600702016001018054600181600116156101000203166002900480601f0160208091040260200160405190810160405280929190818152602001828054600181600116156101000203166002900480156121535780601f1061212857610100808354040283529160200191612153565b820191906000526020600020905b81548152906001019060200180831161213657829003601f168201915b50505050509350600160008873ffffffffffffffffffffffffffffffffffffffff1673ffffffffffffffffffffffffffffffffffffffff1681526020019081526020016000208663ffffffff168154811015156121ac57fe5b90600052602060002090600702016002018054600181600116156101000203166002900480601f0160208091040260200160405190810160405280929190818152602001828054600181600116156101000203166002900480156122515780601f1061222657610100808354040283529160200191612251565b820191906000526020600020905b81548152906001019060200180831161223457829003601f168201915b50505050509250600160008873ffffffffffffffffffffffffffffffffffffffff1673ffffffffffffffffffffffffffffffffffffffff1681526020019081526020016000208663ffffffff168154811015156122aa57fe5b90600052602060002090600702016003018054600181600116156101000203166002900480601f01602080910402602001604051908101604052809291908181526020018280546001816001161561010002031660029004801561234f5780601f106123245761010080835404028352916020019161234f565b820191906000526020600020905b81548152906001019060200180831161233257829003601f168201915b50505050509150600160008873ffffffffffffffffffffffffffffffffffffffff1673ffffffffffffffffffffffffffffffffffffffff1681526020019081526020016000208663ffffffff168154811015156123a857fe5b90600052602060002090600702016004018054600181600116156101000203166002900480601f01602080910402602001604051908101604052809291908181526020018280546001816001161561010002031660029004801561244d5780601f106124225761010080835404028352916020019161244d565b820191906000526020600020905b81548152906001019060200180831161243057829003601f168201915b505050505090507fb36a742563e887f4a6f71e730e13a9b469f954882c16205b9367eece125f0cf733604051808273ffffffffffffffffffffffffffffffffffffffff1673ffffffffffffffffffffffffffffffffffffffff16815260200180602001828103825260298152602001807f73656c6563744170706c6963616e7442794f7267416e64506f736974696f6e2081526020017f28535543434553532900000000000000000000000000000000000000000000008152506040019250505060405180910390a161262e565b60009450602060405190810160405280600081525093506020604051908101604052806000815250925060206040519081016040528060008152509150602060405190810160405280600081525090507fb36a742563e887f4a6f71e730e13a9b469f954882c16205b9367eece125f0cf733604051808273ffffffffffffffffffffffffffffffffffffffff1673ffffffffffffffffffffffffffffffffffffffff168152602001806020018281038252602c8152602001807f73656c6563744170706c6963616e7420284641494c29204170706c6963616e7481526020017f206c6f6f6b7570206661696c00000000000000000000000000000000000000008152506040019250505060405180910390a15b8484848484945094509450945094509295509295909350565b60008263ffffffff168263ffffffff161115151561266157fe5b818303905092915050565b60008082840190508363ffffffff168163ffffffff161015151561268c57fe5b8091505092915050565b828054600181600116156101000203166002900490600052602060002090601f016020900481019282601f106126d757805160ff1916838001178555612705565b82800160010185558215612705579182015b828111156127045782518255916020019190600101906126e9565b5b5090506127129190612796565b5090565b828054600181600116156101000203166002900490600052602060002090601f016020900481019282601f1061275757805160ff1916838001178555612785565b82800160010185558215612785579182015b82811115612784578251825591602001919060010190612769565b5b5090506127929190612796565b5090565b6127b891905b808211156127b457600081600090555060010161279c565b5090565b905600a165627a7a7230582068e5e98f3ee1f0ab9371c639654ea73ad648d71eeb7bb28fb9123e86bfa14da70029",
  "source": "pragma solidity ^0.4.21;\r\n/**\r\n * @title ApplicantFactory\r\n * @dev The ApplicantFactory allows applicants to apply to a credentialOrg for an electronic credential.\r\n */\r\nimport \"./Pausable.sol\";\r\nimport \"./SafeMath32.sol\";\r\n\r\n// allows communication with CredentialOrg Factory.\r\n// not used, will be when testing moves to Javascript.\r\ninterface CredentialOrgFactory{\r\n    function isCredentialOrg(address _credentialOrgAddress) external view returns (bool IsOrgAddress);\r\n}\r\n\r\ncontract ApplicantFactory is Pausable {\r\n\r\n    // SafeMath32 Library Usage\r\n    using SafeMath32 for uint32;\r\n\r\n    // contract events.\r\n    event ApplicantEvent(address ApplicantCallerAddress, string detail);\r\n    \r\n    // mappings\r\n    mapping (address => Applicant[]) orgAddressToApplicants;\r\n    mapping (address => uint32) orgAddressToApplicantCount;\r\n    mapping (address => uint32) applicantAddressToApplicantPosition;\r\n    \r\n    // structs\r\n    struct Applicant {\r\n        address studentAddress;     // address of student requesting credential\r\n        string SSN;                 // Applicant SSN\r\n        string collegeStudentID;    // Applicant CollegeID\r\n        string firstName;           // first name lenmax 40\r\n        string lastName;            // last name  lenmax 40\r\n        uint32 insertDate;          // unix timestamp.\r\n        uint32 processDate;         // unix timestamp.\r\n        string processDetail;       // AWARDED/DENIED\r\n    }\r\n\r\n    /**\r\n    * @dev constructor.\r\n     */\r\n    constructor() public {\r\n    }\r\n    \r\n    // address of CredentialOrgFactory, and class refreence\r\n    address private credentialOrgContractAddress;\r\n    CredentialOrgFactory cof;\r\n\r\n    // functions\r\n    /**\r\n    * @dev Gets Owner Address of Contract\r\n    * @return returnedOwner returns owner of contract address.\r\n    */\r\n    function getOwner()\r\n    public view\r\n    returns (address returnedOwner)\r\n    {\r\n        returnedOwner = owner;\r\n    }\r\n\r\n    /**\r\n    * @dev Allows owner to set address of CredentialOrgFactory contract.\r\n    * @param _credentialOrgContractAddress address of CredentialOrgFactory (set on deploy).\r\n    */\r\n    function setAddress(address _credentialOrgContractAddress) public onlyOwner {\r\n        if (msg.sender == owner){\r\n            credentialOrgContractAddress = _credentialOrgContractAddress;\r\n        }\r\n        cof = CredentialOrgFactory(credentialOrgContractAddress);\r\n    }\r\n\r\n    /**\r\n    * @dev Allows creation of Applicants to Credentialing Orgs\r\n    * @param _collegeAddress address of CredentialingOrg\r\n    * @param _SSN SSN of Student\r\n    * @param _collegeStudentID College Student ID\r\n    * @param _firstName First Name of Student\r\n    * @param _lastName Last Name of Student\r\n    * @return insertSuccess true/false of \r\n    */\r\n    function createApplicant(address _collegeAddress, string _SSN, string _collegeStudentID, string _firstName, string _lastName) \r\n    public whenNotPaused\r\n    returns (bool insertSuccess)\r\n    {\r\n        emit ApplicantEvent(msg.sender, \"createApplicant (ATTEMPT)\");\r\n        require(msg.sender != 0 && _collegeAddress != 0, \"createApplicant (FAIL) Addresses can not be 0.\");\r\n        require(bytes(_SSN).length == 9,\"createApplicant (FAIL) SSN Length incorrect\");\r\n        require(bytes(_collegeStudentID).length == 9, \"createApplicant (FAIL)College StudentID length Problem\");\r\n        require(bytes(_firstName).length > 0 && bytes(_firstName).length <= 40, \"createApplicant (FAIL) FirstName length problem\"); \r\n        require(bytes(_lastName).length > 0 && bytes(_lastName).length <= 40, \"createApplicant (FAIL) LastName length problem\"); \r\n        cof = CredentialOrgFactory(credentialOrgContractAddress);\r\n        if (cof.isCredentialOrg(_collegeAddress)){\r\n            insertSuccess = false;\r\n            uint32 position = uint32(orgAddressToApplicants[_collegeAddress].push(Applicant(msg.sender, _SSN, _collegeStudentID, _firstName, _lastName, uint32(now), 0, \"\")));\r\n            if(position >= 0){\r\n                insertSuccess = true;\r\n                applicantAddressToApplicantPosition[msg.sender] = position.sub(1);\r\n                orgAddressToApplicantCount[_collegeAddress] = orgAddressToApplicantCount[_collegeAddress].add(1);\r\n                emit ApplicantEvent(msg.sender, \"createApplicant (SUCCESS)\");\r\n            } else {\r\n                emit ApplicantEvent(msg.sender, \"createApplicant (FAIL)\");\r\n            }\r\n        } else {\r\n            emit ApplicantEvent(_collegeAddress, \"createApplicant (FAIL) Colleg Applied to address NOT CredetialOrg\");\r\n        }\r\n        return (insertSuccess);\r\n    }\r\n\r\n    /**\r\n    * @dev Allows Selection of Applicant by org and position.\r\n    * @param _orgAddress address of CredentialingOrg\r\n    * @param _position position in array of Applicant\r\n    * @return Applicants student's ether address\r\n    * @return SSN Applicants SSN\r\n    * @return collegeStudentID  Applicant college ID\r\n    * @return firstName Applicant firstName\r\n    * @return lastName Applicant lastName\r\n    */\r\n    function selectApplicantByOrgAndPosition(address _orgAddress, uint32 _position)\r\n    public view \r\n    returns (address studentAddress, string SSN, string collegeStudentID, string firstName,  string lastName)\r\n    {\r\n        require(_orgAddress != 0, \"Applicant orgAddress can not be 0\");\r\n        if (_position < orgAddressToApplicantCount[_orgAddress]){\r\n            studentAddress = orgAddressToApplicants[_orgAddress][_position].studentAddress;\r\n            SSN = orgAddressToApplicants[_orgAddress][_position].SSN;\r\n            collegeStudentID = orgAddressToApplicants[_orgAddress][_position].collegeStudentID;\r\n            firstName = orgAddressToApplicants[_orgAddress][_position].firstName;\r\n            lastName = orgAddressToApplicants[_orgAddress][_position].lastName;\r\n            emit ApplicantEvent(msg.sender, \"selectApplicantByOrgAndPosition (SUCCESS)\");\r\n        } else {\r\n            studentAddress = 0;\r\n            SSN = \"\";\r\n            collegeStudentID = \"\";\r\n            firstName = \"\";\r\n            lastName = \"\";\r\n            emit ApplicantEvent(msg.sender, \"selectApplicant (FAIL) Applicant lookup fail\");\r\n        }\r\n        return(studentAddress, SSN, collegeStudentID, firstName, lastName);\r\n    }\r\n\r\n    /**\r\n    * @dev Allows update of Applicant by org and position.\r\n    * @param _position position in array of Applicant\r\n    * @param _processDetail Applicant AWARDED/DENIED\r\n    * @return updateSuccess true/false\r\n    */\r\n    function updateApplicantByOrgAndPosition(uint32 _position, string _processDetail)\r\n    public whenNotPaused\r\n    returns (bool updateSuccess)\r\n    {\r\n        updateSuccess = false;\r\n        emit ApplicantEvent(msg.sender, \"updateApplicantByOrgAndPosition (ATTEMPT)\");\r\n        require(_position >= 0, \"updateApplicantByOrgAndPosition: Applicant position requires >= 0\");\r\n        require(bytes(_processDetail).length >= 0 && bytes(_processDetail).length <= 10, \"updateApplicantByOrgAndPosition: Applicant Process Detail Missing\");\r\n        cof = CredentialOrgFactory(credentialOrgContractAddress);\r\n        if (cof.isCredentialOrg(msg.sender)){\r\n            if (_position < orgAddressToApplicantCount[msg.sender]){\r\n                orgAddressToApplicants[msg.sender][_position].processDate = uint32(block.timestamp);\r\n                orgAddressToApplicants[msg.sender][_position].processDetail = _processDetail;\r\n                updateSuccess = true;\r\n                emit ApplicantEvent(msg.sender, \"updateApplicantByOrgAndPosition (SUCCESS)\");\r\n            } else {\r\n                emit ApplicantEvent(msg.sender, \"updateApplicantByOrgAndPosition (FAIL) invalid position\");\r\n            }\r\n        } else {\r\n            emit ApplicantEvent(msg.sender, \"updateApplicantByOrgAndPosition (FAIL) msgsender is NOT a credentialling org\");\r\n        }\r\n        return(updateSuccess);\r\n    }\r\n\r\n    /**\r\n    * @dev Allows Selection of Applicant Count by orgAddress\r\n    * @param _orgAddress address of CredentialingOrg\r\n    * @return appCount the Applicant Count for a specific organization.\r\n    */\r\n    function selectOrgApplicantCount(address _orgAddress)\r\n    public view \r\n    returns (uint32 appCount)\r\n    {\r\n        appCount = orgAddressToApplicantCount[_orgAddress];\r\n        return (appCount);\r\n    }\r\n}",
  "sourcePath": "C:\\Projects\\CredentialVerify\\contracts\\ApplicantFactory.sol",
  "compiler": {
    "name": "solc",
    "version": "0.4.24+commit.e67f0147.Emscripten.clang"
  },
  "schemaVersion": "2.0.1",
  "updatedAt": "2018-08-22T15:50:14.132Z"
}