{
  "contractName": "CredentialFactory",
  "abi": [
    {
      "constant": false,
      "inputs": [],
      "name": "unpause",
      "outputs": [],
      "payable": false,
      "stateMutability": "nonpayable",
      "type": "function"
    },
    {
      "constant": true,
      "inputs": [],
      "name": "paused",
      "outputs": [
        {
          "name": "",
          "type": "bool"
        }
      ],
      "payable": false,
      "stateMutability": "view",
      "type": "function"
    },
    {
      "constant": false,
      "inputs": [],
      "name": "pause",
      "outputs": [],
      "payable": false,
      "stateMutability": "nonpayable",
      "type": "function"
    },
    {
      "constant": true,
      "inputs": [],
      "name": "owner",
      "outputs": [
        {
          "name": "",
          "type": "address"
        }
      ],
      "payable": false,
      "stateMutability": "view",
      "type": "function"
    },
    {
      "constant": false,
      "inputs": [
        {
          "name": "newOwner",
          "type": "address"
        }
      ],
      "name": "transferOwnership",
      "outputs": [],
      "payable": false,
      "stateMutability": "nonpayable",
      "type": "function"
    },
    {
      "inputs": [],
      "payable": false,
      "stateMutability": "nonpayable",
      "type": "constructor"
    },
    {
      "anonymous": false,
      "inputs": [
        {
          "indexed": false,
          "name": "credentialOrg",
          "type": "address"
        },
        {
          "indexed": false,
          "name": "credentialTitle",
          "type": "string"
        },
        {
          "indexed": false,
          "name": "detail",
          "type": "string"
        }
      ],
      "name": "CredentialFactoryActivity",
      "type": "event"
    },
    {
      "anonymous": false,
      "inputs": [],
      "name": "Pause",
      "type": "event"
    },
    {
      "anonymous": false,
      "inputs": [],
      "name": "Unpause",
      "type": "event"
    },
    {
      "anonymous": false,
      "inputs": [
        {
          "indexed": true,
          "name": "previousOwner",
          "type": "address"
        },
        {
          "indexed": true,
          "name": "newOwner",
          "type": "address"
        }
      ],
      "name": "OwnershipTransferred",
      "type": "event"
    },
    {
      "constant": true,
      "inputs": [],
      "name": "getOwner",
      "outputs": [
        {
          "name": "returnedOwner",
          "type": "address"
        }
      ],
      "payable": false,
      "stateMutability": "view",
      "type": "function"
    },
    {
      "constant": false,
      "inputs": [
        {
          "name": "_credentialOrgContractAddress",
          "type": "address"
        }
      ],
      "name": "setAddress",
      "outputs": [],
      "payable": false,
      "stateMutability": "nonpayable",
      "type": "function"
    },
    {
      "constant": false,
      "inputs": [
        {
          "name": "_credentialLevel",
          "type": "string"
        },
        {
          "name": "_credentialTitle",
          "type": "string"
        },
        {
          "name": "_credentialDivision",
          "type": "string"
        }
      ],
      "name": "createCredential",
      "outputs": [
        {
          "name": "insertStatus",
          "type": "bool"
        }
      ],
      "payable": false,
      "stateMutability": "nonpayable",
      "type": "function"
    },
    {
      "constant": true,
      "inputs": [
        {
          "name": "_credentialOrgAddress",
          "type": "address"
        },
        {
          "name": "_position",
          "type": "uint32"
        }
      ],
      "name": "selectCredential",
      "outputs": [
        {
          "name": "credentialLevel",
          "type": "string"
        },
        {
          "name": "credentialTitle",
          "type": "string"
        },
        {
          "name": "credentialDivision",
          "type": "string"
        }
      ],
      "payable": false,
      "stateMutability": "view",
      "type": "function"
    },
    {
      "constant": true,
      "inputs": [
        {
          "name": "_credentialOrgAddress",
          "type": "address"
        }
      ],
      "name": "selectOrgCredentialCount",
      "outputs": [
        {
          "name": "returnCredentialCount",
          "type": "uint32"
        }
      ],
      "payable": false,
      "stateMutability": "view",
      "type": "function"
    }
  ],
  "bytecode": "0x608060405260008060146101000a81548160ff02191690831515021790555034801561002a57600080fd5b50336000806101000a81548173ffffffffffffffffffffffffffffffffffffffff021916908373ffffffffffffffffffffffffffffffffffffffff1602179055506117298061007a6000396000f3006080604052600436106100a4576000357c0100000000000000000000000000000000000000000000000000000000900463ffffffff1680633f4ba83a146100a95780635c975abb146100c05780638456cb59146100ef578063893d20e8146101065780638da5cb5b1461015d578063a36b0d42146101b4578063a6b11ba614610217578063e30081a014610324578063e7c3259314610367578063f2fde38b1461050b575b600080fd5b3480156100b557600080fd5b506100be61054e565b005b3480156100cc57600080fd5b506100d561060c565b604051808215151515815260200191505060405180910390f35b3480156100fb57600080fd5b5061010461061f565b005b34801561011257600080fd5b5061011b6106df565b604051808273ffffffffffffffffffffffffffffffffffffffff1673ffffffffffffffffffffffffffffffffffffffff16815260200191505060405180910390f35b34801561016957600080fd5b50610172610708565b604051808273ffffffffffffffffffffffffffffffffffffffff1673ffffffffffffffffffffffffffffffffffffffff16815260200191505060405180910390f35b3480156101c057600080fd5b506101f5600480360381019080803573ffffffffffffffffffffffffffffffffffffffff16906020019092919050505061072d565b604051808263ffffffff1663ffffffff16815260200191505060405180910390f35b34801561022357600080fd5b5061030a600480360381019080803590602001908201803590602001908080601f0160208091040260200160405190810160405280939291908181526020018383808284378201915050505050509192919290803590602001908201803590602001908080601f0160208091040260200160405190810160405280939291908181526020018383808284378201915050505050509192919290803590602001908201803590602001908080601f0160208091040260200160405190810160405280939291908181526020018383808284378201915050505050509192919290505050610789565b604051808215151515815260200191505060405180910390f35b34801561033057600080fd5b50610365600480360381019080803573ffffffffffffffffffffffffffffffffffffffff169060200190929190505050610f0e565b005b34801561037357600080fd5b506103b8600480360381019080803573ffffffffffffffffffffffffffffffffffffffff169060200190929190803563ffffffff169060200190929190505050610fad565b60405180806020018060200180602001848103845287818151815260200191508051906020019080838360005b838110156104005780820151818401526020810190506103e5565b50505050905090810190601f16801561042d5780820380516001836020036101000a031916815260200191505b50848103835286818151815260200191508051906020019080838360005b8381101561046657808201518184015260208101905061044b565b50505050905090810190601f1680156104935780820380516001836020036101000a031916815260200191505b50848103825285818151815260200191508051906020019080838360005b838110156104cc5780820151818401526020810190506104b1565b50505050905090810190601f1680156104f95780820380516001836020036101000a031916815260200191505b50965050505050505060405180910390f35b34801561051757600080fd5b5061054c600480360381019080803573ffffffffffffffffffffffffffffffffffffffff1690602001909291905050506114d9565b005b6000809054906101000a900473ffffffffffffffffffffffffffffffffffffffff1673ffffffffffffffffffffffffffffffffffffffff163373ffffffffffffffffffffffffffffffffffffffff161415156105a957600080fd5b600060149054906101000a900460ff1615156105c457600080fd5b60008060146101000a81548160ff0219169083151502179055507f7805862f689e2f13df9f062ff482ad3ad112aca9e0847911ed832e158c525b3360405160405180910390a1565b600060149054906101000a900460ff1681565b6000809054906101000a900473ffffffffffffffffffffffffffffffffffffffff1673ffffffffffffffffffffffffffffffffffffffff163373ffffffffffffffffffffffffffffffffffffffff1614151561067a57600080fd5b600060149054906101000a900460ff1615151561069657600080fd5b6001600060146101000a81548160ff0219169083151502179055507f6985a02210a168e66602d3235cb6db0e70f92b3ba4d376a33c0f3d9434bff62560405160405180910390a1565b60008060009054906101000a900473ffffffffffffffffffffffffffffffffffffffff16905090565b6000809054906101000a900473ffffffffffffffffffffffffffffffffffffffff1681565b6000600260008373ffffffffffffffffffffffffffffffffffffffff1673ffffffffffffffffffffffffffffffffffffffff16815260200190815260200160002060009054906101000a900463ffffffff169050809050919050565b6000807f22efaf0cb3bd642425e7be86b531b1a553c2d7a83936239ee16e9f7fdb8fa37d3385604051808373ffffffffffffffffffffffffffffffffffffffff1673ffffffffffffffffffffffffffffffffffffffff1681526020018060200180602001838103835284818151815260200191508051906020019080838360005b8381101561082557808201518184015260208101905061080a565b50505050905090810190601f1680156108525780820380516001836020036101000a031916815260200191505b508381038252601c8152602001807f4e65772043726564656e7469616c204164642028415454454d5054290000000081525060200194505050505060405180910390a160009150600085511180156108ab575060328551105b1515610945576040517f08c379a00000000000000000000000000000000000000000000000000000000081526004018080602001828103825260278152602001807f63726561746543726564656e7469616c202d204c6576656c206c656e6774682081526020017f70726f626c656d0000000000000000000000000000000000000000000000000081525060400191505060405180910390fd5b60008451118015610957575060468451105b15156109f1576040517f08c379a00000000000000000000000000000000000000000000000000000000081526004018080602001828103825260278152602001807f63726561746543726564656e7469616c202d205469746c65206c656e6774682081526020017f70726f626c656d0000000000000000000000000000000000000000000000000081525060400191505060405180910390fd5b6000835110158015610a04575060328351105b1515610a9e576040517f08c379a000000000000000000000000000000000000000000000000000000000815260040180806020018281038252602a8152602001807f63726561746543726564656e7469616c202d204469766973696f6e206c656e6781526020017f74682070726f626c656d0000000000000000000000000000000000000000000081525060400191505060405180910390fd5b600160003373ffffffffffffffffffffffffffffffffffffffff1673ffffffffffffffffffffffffffffffffffffffff16815260200190815260200160002060a0604051908101604052803373ffffffffffffffffffffffffffffffffffffffff1681526020018781526020018681526020018581526020014263ffffffff168152509080600181540180825580915050906001820390600052602060002090600502016000909192909190915060008201518160000160006101000a81548173ffffffffffffffffffffffffffffffffffffffff021916908373ffffffffffffffffffffffffffffffffffffffff1602179055506020820151816001019080519060200190610baf929190611658565b506040820151816002019080519060200190610bcc929190611658565b506060820151816003019080519060200190610be9929190611658565b5060808201518160040160006101000a81548163ffffffff021916908363ffffffff1602179055505050905060008163ffffffff161115610dfc5760019150610c916001600260003373ffffffffffffffffffffffffffffffffffffffff1673ffffffffffffffffffffffffffffffffffffffff16815260200190815260200160002060009054906101000a900463ffffffff1663ffffffff1661162e90919063ffffffff16565b600260003373ffffffffffffffffffffffffffffffffffffffff1673ffffffffffffffffffffffffffffffffffffffff16815260200190815260200160002060006101000a81548163ffffffff021916908363ffffffff1602179055507f22efaf0cb3bd642425e7be86b531b1a553c2d7a83936239ee16e9f7fdb8fa37d3385604051808373ffffffffffffffffffffffffffffffffffffffff1673ffffffffffffffffffffffffffffffffffffffff1681526020018060200180602001838103835284818151815260200191508051906020019080838360005b83811015610d87578082015181840152602081019050610d6c565b50505050905090810190601f168015610db45780820380516001836020036101000a031916815260200191505b508381038252601d8152602001807f4e65772043726564656e7469616c20416464202853554343434553532900000081525060200194505050505060405180910390a1610f06565b7f22efaf0cb3bd642425e7be86b531b1a553c2d7a83936239ee16e9f7fdb8fa37d3385604051808373ffffffffffffffffffffffffffffffffffffffff1673ffffffffffffffffffffffffffffffffffffffff1681526020018060200180602001838103835284818151815260200191508051906020019080838360005b83811015610e95578082015181840152602081019050610e7a565b50505050905090810190601f168015610ec25780820380516001836020036101000a031916815260200191505b508381038252601b8152602001807f4e65772043726564656e7469616c2041646420284641494c454429000000000081525060200194505050505060405180910390a15b509392505050565b6000809054906101000a900473ffffffffffffffffffffffffffffffffffffffff1673ffffffffffffffffffffffffffffffffffffffff163373ffffffffffffffffffffffffffffffffffffffff16141515610f6957600080fd5b80600360006101000a81548173ffffffffffffffffffffffffffffffffffffffff021916908373ffffffffffffffffffffffffffffffffffffffff16021790555050565b606080606060008463ffffffff1610151515611057576040517f08c379a000000000000000000000000000000000000000000000000000000000815260040180806020018281038252602a8152602001807f73656c65637443726564656e7469616c20284641494c2920706f736974696f6e81526020017f20696e636f72726563740000000000000000000000000000000000000000000081525060400191505060405180910390fd5b600260008673ffffffffffffffffffffffffffffffffffffffff1673ffffffffffffffffffffffffffffffffffffffff16815260200190815260200160002060009054906101000a900463ffffffff1663ffffffff168463ffffffff1610156113c257600160008673ffffffffffffffffffffffffffffffffffffffff1673ffffffffffffffffffffffffffffffffffffffff1681526020019081526020016000208463ffffffff1681548110151561110c57fe5b9060005260206000209060050201600101600160008773ffffffffffffffffffffffffffffffffffffffff1673ffffffffffffffffffffffffffffffffffffffff1681526020019081526020016000208563ffffffff1681548110151561116f57fe5b9060005260206000209060050201600201600160008873ffffffffffffffffffffffffffffffffffffffff1673ffffffffffffffffffffffffffffffffffffffff1681526020019081526020016000208663ffffffff168154811015156111d257fe5b9060005260206000209060050201600301828054600181600116156101000203166002900480601f0160208091040260200160405190810160405280929190818152602001828054600181600116156101000203166002900480156112785780601f1061124d57610100808354040283529160200191611278565b820191906000526020600020905b81548152906001019060200180831161125b57829003601f168201915b50505050509250818054600181600116156101000203166002900480601f0160208091040260200160405190810160405280929190818152602001828054600181600116156101000203166002900480156113145780601f106112e957610100808354040283529160200191611314565b820191906000526020600020905b8154815290600101906020018083116112f757829003601f168201915b50505050509150808054600181600116156101000203166002900480601f0160208091040260200160405190810160405280929190818152602001828054600181600116156101000203166002900480156113b05780601f10611385576101008083540402835291602001916113b0565b820191906000526020600020905b81548152906001019060200180831161139357829003601f168201915b505050505090509250925092506114d2565b7f22efaf0cb3bd642425e7be86b531b1a553c2d7a83936239ee16e9f7fdb8fa37d85604051808273ffffffffffffffffffffffffffffffffffffffff1673ffffffffffffffffffffffffffffffffffffffff1681526020018060200180602001838103835260008152602001602001838103825260298152602001807f73656c65637443726564656e7469616c3a2043726564656e7469616c20426f7581526020017f6e6473204572726f720000000000000000000000000000000000000000000000815250604001935050505060405180910390a16020604051908101604052806000815250602060405190810160405280600081525060206040519081016040528060008152509250925092505b9250925092565b6000809054906101000a900473ffffffffffffffffffffffffffffffffffffffff1673ffffffffffffffffffffffffffffffffffffffff163373ffffffffffffffffffffffffffffffffffffffff1614151561153457600080fd5b600073ffffffffffffffffffffffffffffffffffffffff168173ffffffffffffffffffffffffffffffffffffffff161415151561157057600080fd5b8073ffffffffffffffffffffffffffffffffffffffff166000809054906101000a900473ffffffffffffffffffffffffffffffffffffffff1673ffffffffffffffffffffffffffffffffffffffff167f8be0079c531659141344cd1fd0a4f28419497f9722a3daafe3b4186f6b6457e060405160405180910390a3806000806101000a81548173ffffffffffffffffffffffffffffffffffffffff021916908373ffffffffffffffffffffffffffffffffffffffff16021790555050565b60008082840190508363ffffffff168163ffffffff161015151561164e57fe5b8091505092915050565b828054600181600116156101000203166002900490600052602060002090601f016020900481019282601f1061169957805160ff19168380011785556116c7565b828001600101855582156116c7579182015b828111156116c65782518255916020019190600101906116ab565b5b5090506116d491906116d8565b5090565b6116fa91905b808211156116f65760008160009055506001016116de565b5090565b905600a165627a7a72305820d98235c3e805ba13f18c42ffa2b80cf0d7dc4a719bf85036bf5875b734d63c830029",
  "source": "pragma solidity ^0.4.21;\r\nimport \"./Pausable.sol\";\r\nimport \"./SafeMath32.sol\";\r\n/**\r\n * @title CredentialFactory\r\n * @dev The CredentialFactory allows the credentialOrgs to add/lookup credentials\r\n */\r\n\r\n// allows interaction with CredentialOrgFactory.\r\n// not used, but will be when testing moves to Javascript.\r\ninterface CredentialOrgFactory{\r\n    function isCredentialOrg(address _credentialOrgAddress) external view returns (bool IsOrgAddress);\r\n}\r\n\r\ncontract CredentialFactory is Pausable{\r\n    \r\n    // SafeMath32 library.\r\n    using SafeMath32 for uint32;\r\n    \r\n    // event\r\n    event CredentialFactoryActivity(address credentialOrg, string credentialTitle, string detail);\r\n\r\n    // mapping\r\n    mapping (address => Credential[]) orgAddressToCredentials;\r\n    mapping (address => uint32) orgAddressToCredentialTotalCount;\r\n\r\n    // structs\r\n    struct Credential {\r\n        address credentialOrg;      // CredentialOwnerAddress\r\n        string credentialLevel;     // 50 or less string\r\n        string credentialTitle;     // 70 or less string\r\n        string credentialDivision;  // 50 or less string\r\n        uint32 credentialInsertDate;// Credential Insert timestamp\r\n    }\r\n    \r\n    // address to allow communication with CredentialOrgFactory.\r\n    address private credentialOrgContractAddress;\r\n\r\n    /**\r\n    * @dev constructor\r\n    */\r\n    constructor () public {\r\n    }\r\n\r\n    // functions\r\n    /**\r\n    * @dev get the owner of the contract\r\n    * @return returns owner address\r\n    */\r\n    function getOwner()\r\n    public view\r\n    returns (address returnedOwner)\r\n    {\r\n        returnedOwner = owner;\r\n    }\r\n\r\n    /**\r\n    * @dev setting allows communication between CredentialFactory and CredentialOrgFactory\r\n    * @param _credentialOrgContractAddress Address of CredentialOrgFactory Contract.\r\n    */\r\n    function setAddress(address _credentialOrgContractAddress) public onlyOwner {\r\n        credentialOrgContractAddress = _credentialOrgContractAddress;\r\n    }\r\n\r\n    /**\r\n    * @dev allows credentialing Orgs to create new credentials\r\n    * @param _credentialLevel Credential Level\r\n    * @param _credentialTitle CredentialTitle\r\n    * @param _credentialDivision Credential Division\r\n    * @return insertStatus - true false if insert happened.\r\n    */\r\n    function createCredential(string _credentialLevel, string _credentialTitle, string _credentialDivision) \r\n    public \r\n    returns (bool insertStatus)\r\n    {\r\n        emit CredentialFactoryActivity(msg.sender, _credentialTitle, \"New Credential Add (ATTEMPT)\");\r\n        insertStatus = false;\r\n        require(bytes(_credentialLevel).length > 0 && bytes(_credentialLevel).length < 50, \"createCredential - Level length problem\");\r\n        require(bytes(_credentialTitle).length > 0 && bytes(_credentialTitle).length < 70, \"createCredential - Title length problem\");\r\n        require(bytes(_credentialDivision).length >= 0 && bytes(_credentialDivision).length < 50, \"createCredential - Division length problem\");\r\n        uint32 position = uint32(orgAddressToCredentials[msg.sender].push(Credential(msg.sender, _credentialLevel, _credentialTitle, _credentialDivision, uint32(block.timestamp))));\r\n        if(position > 0){\r\n            insertStatus = true;\r\n            orgAddressToCredentialTotalCount[msg.sender] = orgAddressToCredentialTotalCount[msg.sender].add(1);\r\n            emit CredentialFactoryActivity(msg.sender, _credentialTitle, \"New Credential Add (SUCCCESS)\");\r\n        } else {\r\n            emit CredentialFactoryActivity(msg.sender, _credentialTitle, \"New Credential Add (FAILED)\");\r\n        }\r\n    }\r\n\r\n    /**\r\n    * @dev allows selection of credential based on position.\r\n    * @param _credentialOrgAddress credentialOrg Address\r\n    * @param _position allows selection of credentialing orgs details.\r\n    * @return credentialLevel - credential level\r\n    * @return credentialOrgAddress - credential Org Address of credential owner.\r\n    * @return credentialDivision - credential org division for credential.\r\n    */\r\n    function selectCredential(address _credentialOrgAddress, uint32 _position) \r\n    public view\r\n    returns (string credentialLevel, string credentialTitle, string credentialDivision)\r\n    {\r\n        require(_position >= 0, \"selectCredential (FAIL) position incorrect\");\r\n        if (_position < orgAddressToCredentialTotalCount[_credentialOrgAddress]){\r\n            return (orgAddressToCredentials[_credentialOrgAddress][_position].credentialLevel,orgAddressToCredentials[_credentialOrgAddress][_position].credentialTitle, orgAddressToCredentials[_credentialOrgAddress][_position].credentialDivision);    \r\n        } else {\r\n            emit CredentialFactoryActivity(_credentialOrgAddress, \"\", \"selectCredential: Credential Bounds Error\");\r\n            return (\"\",\"\",\"\");\r\n        }\r\n    }\r\n\r\n    /**\r\n    * @dev allows checking of CredentialCount of a CredentialOrg\r\n    * @param _credentialOrgAddress Address of Credential Org\r\n    * @return returnCredentialCount - returns count of credentials of org.\r\n    */\r\n    function selectOrgCredentialCount(address _credentialOrgAddress)\r\n    public view \r\n    returns (uint32 returnCredentialCount)\r\n    {\r\n        returnCredentialCount = orgAddressToCredentialTotalCount[_credentialOrgAddress];\r\n        return (returnCredentialCount);\r\n    }\r\n\r\n}",
  "sourcePath": "E:\\Projects\\CredentialVerify\\contracts\\CredentialFactory.sol",
  "compiler": {
    "name": "solc",
    "version": "0.4.24+commit.e67f0147.Emscripten.clang"
  },
  "schemaVersion": "2.0.1",
  "updatedAt": "2018-08-18T23:35:38.901Z"
}