{
  "contractName": "ProcessApplicants",
  "abi": [
    {
      "constant": false,
      "inputs": [],
      "name": "unpause",
      "outputs": [],
      "payable": false,
      "stateMutability": "nonpayable",
      "type": "function"
    },
    {
      "constant": true,
      "inputs": [],
      "name": "paused",
      "outputs": [
        {
          "name": "",
          "type": "bool"
        }
      ],
      "payable": false,
      "stateMutability": "view",
      "type": "function"
    },
    {
      "constant": false,
      "inputs": [],
      "name": "pause",
      "outputs": [],
      "payable": false,
      "stateMutability": "nonpayable",
      "type": "function"
    },
    {
      "constant": true,
      "inputs": [],
      "name": "owner",
      "outputs": [
        {
          "name": "",
          "type": "address"
        }
      ],
      "payable": false,
      "stateMutability": "view",
      "type": "function"
    },
    {
      "constant": false,
      "inputs": [
        {
          "name": "newOwner",
          "type": "address"
        }
      ],
      "name": "transferOwnership",
      "outputs": [],
      "payable": false,
      "stateMutability": "nonpayable",
      "type": "function"
    },
    {
      "inputs": [],
      "payable": false,
      "stateMutability": "nonpayable",
      "type": "constructor"
    },
    {
      "anonymous": false,
      "inputs": [
        {
          "indexed": false,
          "name": "orgAddress",
          "type": "address"
        },
        {
          "indexed": false,
          "name": "ApplicantAddress",
          "type": "address"
        },
        {
          "indexed": false,
          "name": "position",
          "type": "uint32"
        },
        {
          "indexed": false,
          "name": "detail",
          "type": "string"
        }
      ],
      "name": "ProcessCredentialApplicant",
      "type": "event"
    },
    {
      "anonymous": false,
      "inputs": [
        {
          "indexed": false,
          "name": "orgAddress",
          "type": "address"
        },
        {
          "indexed": false,
          "name": "detail",
          "type": "string"
        }
      ],
      "name": "ProcessCredentialDetail",
      "type": "event"
    },
    {
      "anonymous": false,
      "inputs": [],
      "name": "Pause",
      "type": "event"
    },
    {
      "anonymous": false,
      "inputs": [],
      "name": "Unpause",
      "type": "event"
    },
    {
      "anonymous": false,
      "inputs": [
        {
          "indexed": true,
          "name": "previousOwner",
          "type": "address"
        },
        {
          "indexed": true,
          "name": "newOwner",
          "type": "address"
        }
      ],
      "name": "OwnershipTransferred",
      "type": "event"
    },
    {
      "constant": true,
      "inputs": [],
      "name": "getOwner",
      "outputs": [
        {
          "name": "returnedOwner",
          "type": "address"
        }
      ],
      "payable": false,
      "stateMutability": "view",
      "type": "function"
    },
    {
      "constant": false,
      "inputs": [
        {
          "name": "_credentialOrgContractAddress",
          "type": "address"
        },
        {
          "name": "_credentialContractAddress",
          "type": "address"
        },
        {
          "name": "_applicantContractAddress",
          "type": "address"
        }
      ],
      "name": "setAddress",
      "outputs": [],
      "payable": false,
      "stateMutability": "nonpayable",
      "type": "function"
    },
    {
      "constant": false,
      "inputs": [
        {
          "name": "_position",
          "type": "uint32"
        }
      ],
      "name": "updateApplicantProcessingPosition",
      "outputs": [],
      "payable": false,
      "stateMutability": "nonpayable",
      "type": "function"
    },
    {
      "constant": false,
      "inputs": [],
      "name": "selectCredentialOrgNextApplicant",
      "outputs": [
        {
          "name": "studentAddress",
          "type": "address"
        },
        {
          "name": "SSN",
          "type": "string"
        },
        {
          "name": "collegeStudentID",
          "type": "string"
        },
        {
          "name": "firstName",
          "type": "string"
        },
        {
          "name": "lastName",
          "type": "string"
        },
        {
          "name": "insertDate",
          "type": "uint32"
        }
      ],
      "payable": false,
      "stateMutability": "nonpayable",
      "type": "function"
    },
    {
      "constant": true,
      "inputs": [
        {
          "name": "_credentialOrg",
          "type": "address"
        },
        {
          "name": "_credentialPosition",
          "type": "uint32"
        }
      ],
      "name": "selectCredentialbyOrgAndPosition",
      "outputs": [
        {
          "name": "credentialLevel",
          "type": "string"
        },
        {
          "name": "credentialTitle",
          "type": "string"
        },
        {
          "name": "credentialDivision",
          "type": "string"
        }
      ],
      "payable": false,
      "stateMutability": "view",
      "type": "function"
    },
    {
      "constant": true,
      "inputs": [
        {
          "name": "_credentialOrg",
          "type": "address"
        }
      ],
      "name": "selectApplicantbyOrg",
      "outputs": [
        {
          "name": "applicant",
          "type": "address"
        },
        {
          "name": "SSN",
          "type": "string"
        },
        {
          "name": "collegeStudentID",
          "type": "string"
        },
        {
          "name": "firstName",
          "type": "string"
        },
        {
          "name": "lastName",
          "type": "string"
        }
      ],
      "payable": false,
      "stateMutability": "view",
      "type": "function"
    }
  ],
  "bytecode": "0x608060405260008060146101000a81548160ff02191690831515021790555034801561002a57600080fd5b50336000806101000a81548173ffffffffffffffffffffffffffffffffffffffff021916908373ffffffffffffffffffffffffffffffffffffffff160217905550611b728061007a6000396000f3006080604052600436106100af576000357c0100000000000000000000000000000000000000000000000000000000900463ffffffff1680633be08dab146100b45780633f4ba83a1461013757806341af3ed81461014e578063551e8f8c146103815780635c975abb146103b45780637821fe02146103e35780638456cb5914610587578063893d20e81461059e5780638da5cb5b146105f5578063e27716d71461064c578063f2fde38b14610866575b600080fd5b3480156100c057600080fd5b50610135600480360381019080803573ffffffffffffffffffffffffffffffffffffffff169060200190929190803573ffffffffffffffffffffffffffffffffffffffff169060200190929190803573ffffffffffffffffffffffffffffffffffffffff1690602001909291905050506108a9565b005b34801561014357600080fd5b5061014c610b4b565b005b34801561015a57600080fd5b5061018f600480360381019080803573ffffffffffffffffffffffffffffffffffffffff169060200190929190505050610c09565b604051808673ffffffffffffffffffffffffffffffffffffffff1673ffffffffffffffffffffffffffffffffffffffff16815260200180602001806020018060200180602001858103855289818151815260200191508051906020019080838360005b8381101561020d5780820151818401526020810190506101f2565b50505050905090810190601f16801561023a5780820380516001836020036101000a031916815260200191505b50858103845288818151815260200191508051906020019080838360005b83811015610273578082015181840152602081019050610258565b50505050905090810190601f1680156102a05780820380516001836020036101000a031916815260200191505b50858103835287818151815260200191508051906020019080838360005b838110156102d95780820151818401526020810190506102be565b50505050905090810190601f1680156103065780820380516001836020036101000a031916815260200191505b50858103825286818151815260200191508051906020019080838360005b8381101561033f578082015181840152602081019050610324565b50505050905090810190601f16801561036c5780820380516001836020036101000a031916815260200191505b50995050505050505050505060405180910390f35b34801561038d57600080fd5b506103b2600480360381019080803563ffffffff169060200190929190505050610ee5565b005b3480156103c057600080fd5b506103c961102d565b604051808215151515815260200191505060405180910390f35b3480156103ef57600080fd5b50610434600480360381019080803573ffffffffffffffffffffffffffffffffffffffff169060200190929190803563ffffffff169060200190929190505050611040565b60405180806020018060200180602001848103845287818151815260200191508051906020019080838360005b8381101561047c578082015181840152602081019050610461565b50505050905090810190601f1680156104a95780820380516001836020036101000a031916815260200191505b50848103835286818151815260200191508051906020019080838360005b838110156104e25780820151818401526020810190506104c7565b50505050905090810190601f16801561050f5780820380516001836020036101000a031916815260200191505b50848103825285818151815260200191508051906020019080838360005b8381101561054857808201518184015260208101905061052d565b50505050905090810190601f1680156105755780820380516001836020036101000a031916815260200191505b50965050505050505060405180910390f35b34801561059357600080fd5b5061059c61127b565b005b3480156105aa57600080fd5b506105b361133b565b604051808273ffffffffffffffffffffffffffffffffffffffff1673ffffffffffffffffffffffffffffffffffffffff16815260200191505060405180910390f35b34801561060157600080fd5b5061060a611364565b604051808273ffffffffffffffffffffffffffffffffffffffff1673ffffffffffffffffffffffffffffffffffffffff16815260200191505060405180910390f35b34801561065857600080fd5b50610661611389565b604051808773ffffffffffffffffffffffffffffffffffffffff1673ffffffffffffffffffffffffffffffffffffffff168152602001806020018060200180602001806020018663ffffffff1663ffffffff16815260200185810385528a818151815260200191508051906020019080838360005b838110156106f15780820151818401526020810190506106d6565b50505050905090810190601f16801561071e5780820380516001836020036101000a031916815260200191505b50858103845289818151815260200191508051906020019080838360005b8381101561075757808201518184015260208101905061073c565b50505050905090810190601f1680156107845780820380516001836020036101000a031916815260200191505b50858103835288818151815260200191508051906020019080838360005b838110156107bd5780820151818401526020810190506107a2565b50505050905090810190601f1680156107ea5780820380516001836020036101000a031916815260200191505b50858103825287818151815260200191508051906020019080838360005b83811015610823578082015181840152602081019050610808565b50505050905090810190601f1680156108505780820380516001836020036101000a031916815260200191505b509a505050505050505050505060405180910390f35b34801561087257600080fd5b506108a7600480360381019080803573ffffffffffffffffffffffffffffffffffffffff1690602001909291905050506119c7565b005b6000809054906101000a900473ffffffffffffffffffffffffffffffffffffffff1673ffffffffffffffffffffffffffffffffffffffff163373ffffffffffffffffffffffffffffffffffffffff1614151561090457600080fd5b6000809054906101000a900473ffffffffffffffffffffffffffffffffffffffff1673ffffffffffffffffffffffffffffffffffffffff163373ffffffffffffffffffffffffffffffffffffffff161415610a1d5782600260006101000a81548173ffffffffffffffffffffffffffffffffffffffff021916908373ffffffffffffffffffffffffffffffffffffffff16021790555081600360006101000a81548173ffffffffffffffffffffffffffffffffffffffff021916908373ffffffffffffffffffffffffffffffffffffffff16021790555080600460006101000a81548173ffffffffffffffffffffffffffffffffffffffff021916908373ffffffffffffffffffffffffffffffffffffffff1602179055505b600460009054906101000a900473ffffffffffffffffffffffffffffffffffffffff16600560006101000a81548173ffffffffffffffffffffffffffffffffffffffff021916908373ffffffffffffffffffffffffffffffffffffffff160217905550600360009054906101000a900473ffffffffffffffffffffffffffffffffffffffff16600660006101000a81548173ffffffffffffffffffffffffffffffffffffffff021916908373ffffffffffffffffffffffffffffffffffffffff160217905550600260009054906101000a900473ffffffffffffffffffffffffffffffffffffffff16600760006101000a81548173ffffffffffffffffffffffffffffffffffffffff021916908373ffffffffffffffffffffffffffffffffffffffff160217905550505050565b6000809054906101000a900473ffffffffffffffffffffffffffffffffffffffff1673ffffffffffffffffffffffffffffffffffffffff163373ffffffffffffffffffffffffffffffffffffffff16141515610ba657600080fd5b600060149054906101000a900460ff161515610bc157600080fd5b60008060146101000a81548160ff0219169083151502179055507f7805862f689e2f13df9f062ff482ad3ad112aca9e0847911ed832e158c525b3360405160405180910390a1565b6000606080606080600560009054906101000a900473ffffffffffffffffffffffffffffffffffffffff1673ffffffffffffffffffffffffffffffffffffffff1663f76806d987600160008a73ffffffffffffffffffffffffffffffffffffffff1673ffffffffffffffffffffffffffffffffffffffff16815260200190815260200160002060009054906101000a900463ffffffff166040518363ffffffff167c0100000000000000000000000000000000000000000000000000000000028152600401808373ffffffffffffffffffffffffffffffffffffffff1673ffffffffffffffffffffffffffffffffffffffff1681526020018263ffffffff1663ffffffff16815260200192505050600060405180830381600087803b158015610d3157600080fd5b505af1158015610d45573d6000803e3d6000fd5b505050506040513d6000823e3d601f19601f8201168201806040525060a0811015610d6f57600080fd5b81019080805190602001909291908051640100000000811115610d9157600080fd5b82810190506020810184811115610da757600080fd5b8151856001820283011164010000000082111715610dc457600080fd5b50509291906020018051640100000000811115610de057600080fd5b82810190506020810184811115610df657600080fd5b8151856001820283011164010000000082111715610e1357600080fd5b50509291906020018051640100000000811115610e2f57600080fd5b82810190506020810184811115610e4557600080fd5b8151856001820283011164010000000082111715610e6257600080fd5b50509291906020018051640100000000811115610e7e57600080fd5b82810190506020810184811115610e9457600080fd5b8151856001820283011164010000000082111715610eb157600080fd5b5050929190505050809550819650829750839850849950505050505084848484849450945094509450945091939590929450565b600060149054906101000a900460ff16151515610f0157600080fd5b60008163ffffffff1610151515610fcc576040517f08c379a00000000000000000000000000000000000000000000000000000000081526004018080602001828103825260498152602001807f7570646174654170706c6963616e7450726f63657373696e67506f736974696f81526020017f6e3a20284641494c2920706f736974696f6e2068617320746f2062652030206f81526020017f722067726561746572000000000000000000000000000000000000000000000081525060600191505060405180910390fd5b80600160003373ffffffffffffffffffffffffffffffffffffffff1673ffffffffffffffffffffffffffffffffffffffff16815260200190815260200160002060006101000a81548163ffffffff021916908363ffffffff16021790555050565b600060149054906101000a900460ff1681565b6060806060600660009054906101000a900473ffffffffffffffffffffffffffffffffffffffff1673ffffffffffffffffffffffffffffffffffffffff1663e7c3259386866040518363ffffffff167c0100000000000000000000000000000000000000000000000000000000028152600401808373ffffffffffffffffffffffffffffffffffffffff1673ffffffffffffffffffffffffffffffffffffffff1681526020018263ffffffff1663ffffffff16815260200192505050600060405180830381600087803b15801561111657600080fd5b505af115801561112a573d6000803e3d6000fd5b505050506040513d6000823e3d601f19601f8201168201806040525060a081101561115457600080fd5b81019080805164010000000081111561116c57600080fd5b8281019050602081018481111561118257600080fd5b815185600182028301116401000000008211171561119f57600080fd5b505092919060200180516401000000008111156111bb57600080fd5b828101905060208101848111156111d157600080fd5b81518560018202830111640100000000821117156111ee57600080fd5b5050929190602001805164010000000081111561120a57600080fd5b8281019050602081018481111561122057600080fd5b815185600182028301116401000000008211171561123d57600080fd5b505092919060200180519060200190929190805190602001909291905050509050508093508194508295505050508282829250925092509250925092565b6000809054906101000a900473ffffffffffffffffffffffffffffffffffffffff1673ffffffffffffffffffffffffffffffffffffffff163373ffffffffffffffffffffffffffffffffffffffff161415156112d657600080fd5b600060149054906101000a900460ff161515156112f257600080fd5b6001600060146101000a81548160ff0219169083151502179055507f6985a02210a168e66602d3235cb6db0e70f92b3ba4d376a33c0f3d9434bff62560405160405180910390a1565b60008060009054906101000a900473ffffffffffffffffffffffffffffffffffffffff16905090565b6000809054906101000a900473ffffffffffffffffffffffffffffffffffffffff1681565b60006060806060806000600160003373ffffffffffffffffffffffffffffffffffffffff1673ffffffffffffffffffffffffffffffffffffffff16815260200190815260200160002060009054906101000a900463ffffffff1663ffffffff16600560009054906101000a900473ffffffffffffffffffffffffffffffffffffffff1673ffffffffffffffffffffffffffffffffffffffff16631e0beabe336040518263ffffffff167c0100000000000000000000000000000000000000000000000000000000028152600401808273ffffffffffffffffffffffffffffffffffffffff1673ffffffffffffffffffffffffffffffffffffffff168152602001915050602060405180830381600087803b1580156114a657600080fd5b505af11580156114ba573d6000803e3d6000fd5b505050506040513d60208110156114d057600080fd5b810190808051906020019092919050505063ffffffff1610151561187457600560009054906101000a900473ffffffffffffffffffffffffffffffffffffffff1673ffffffffffffffffffffffffffffffffffffffff1663f76806d933600160003373ffffffffffffffffffffffffffffffffffffffff1673ffffffffffffffffffffffffffffffffffffffff16815260200190815260200160002060009054906101000a900463ffffffff166040518363ffffffff167c0100000000000000000000000000000000000000000000000000000000028152600401808373ffffffffffffffffffffffffffffffffffffffff1673ffffffffffffffffffffffffffffffffffffffff1681526020018263ffffffff1663ffffffff16815260200192505050600060405180830381600087803b15801561160e57600080fd5b505af1158015611622573d6000803e3d6000fd5b505050506040513d6000823e3d601f19601f8201168201806040525060a081101561164c57600080fd5b8101908080519060200190929190805164010000000081111561166e57600080fd5b8281019050602081018481111561168457600080fd5b81518560018202830111640100000000821117156116a157600080fd5b505092919060200180516401000000008111156116bd57600080fd5b828101905060208101848111156116d357600080fd5b81518560018202830111640100000000821117156116f057600080fd5b5050929190602001805164010000000081111561170c57600080fd5b8281019050602081018481111561172257600080fd5b815185600182028301116401000000008211171561173f57600080fd5b5050929190602001805164010000000081111561175b57600080fd5b8281019050602081018481111561177157600080fd5b815185600182028301116401000000008211171561178e57600080fd5b5050929190505050809650819750829850839950849a50505050505061181260018060003373ffffffffffffffffffffffffffffffffffffffff1673ffffffffffffffffffffffffffffffffffffffff16815260200190815260200160002060009054906101000a900463ffffffff1663ffffffff16611b1c90919063ffffffff16565b600160003373ffffffffffffffffffffffffffffffffffffffff1673ffffffffffffffffffffffffffffffffffffffff16815260200190815260200160002060006101000a81548163ffffffff021916908363ffffffff1602179055506119ad565b60009550602060405190810160405280600081525094506020604051908101604052806000815250935060206040519081016040528060008152509250602060405190810160405280600081525091507f35700b49fb417a13a257973e03d2106f91bb3a03c1ff1d27d9264885f4a603d333604051808273ffffffffffffffffffffffffffffffffffffffff1673ffffffffffffffffffffffffffffffffffffffff16815260200180602001828103825260418152602001807f73656c65637443726564656e7469616c4f72674e6578744170706c6963616e7481526020017f20284641494c29204e6f204170706c6963616e747320746f2050726f6365737381526020017f2e000000000000000000000000000000000000000000000000000000000000008152506060019250505060405180910390a15b858585858585955095509550955095509550909192939495565b6000809054906101000a900473ffffffffffffffffffffffffffffffffffffffff1673ffffffffffffffffffffffffffffffffffffffff163373ffffffffffffffffffffffffffffffffffffffff16141515611a2257600080fd5b600073ffffffffffffffffffffffffffffffffffffffff168173ffffffffffffffffffffffffffffffffffffffff1614151515611a5e57600080fd5b8073ffffffffffffffffffffffffffffffffffffffff166000809054906101000a900473ffffffffffffffffffffffffffffffffffffffff1673ffffffffffffffffffffffffffffffffffffffff167f8be0079c531659141344cd1fd0a4f28419497f9722a3daafe3b4186f6b6457e060405160405180910390a3806000806101000a81548173ffffffffffffffffffffffffffffffffffffffff021916908373ffffffffffffffffffffffffffffffffffffffff16021790555050565b60008082840190508363ffffffff168163ffffffff1610151515611b3c57fe5b80915050929150505600a165627a7a7230582076e73dc24a2f3f1a20587d1084c6f7d2a40d7000fd1f36bd291d516aa7743fd20029",
  "source": "pragma solidity ^0.4.21;\r\n/**\r\n * @title ProcessCredentials\r\n * @dev The ProcessCredentials contracts allows gathering of all the information between \r\n *      CredentialOrgFactory, CredentialFactory, ApplicantFactory.\r\n */\r\nimport \"./Pausable.sol\";\r\nimport \"./SafeMath32.sol\";\r\n\r\n// Allows interface between Process Credentials and CredentialOrgFactory.\r\n// not used at this time, will be when testing moves to Javascript.\r\ninterface CredentialOrgFactory{\r\n    function isCredentialOrg(address _credentialOrgAddress) external view returns (bool IsOrgAddress);\r\n}\r\n\r\n// Allows interface between Process Credentials and CredentialFactory.\r\ninterface CredentialFactory{\r\n    function selectCredential(address _credentialOrgAddress, uint32 _position) \r\n    external view \r\n    returns (string credentialLevel, string credentialTitle, string credentialDivision, uint32 credentialInsertDate, bool isActive);\r\n}\r\n\r\n// Allows interface between Process Credentials and ApplicantFactory.\r\ninterface ApplicantFactory{\r\n    function selectApplicantByOrgAndPosition(address _orgAddress, uint32 _position) \r\n    external view \r\n    returns (address studentAddress, string SSN, string collegeStudentID, string firstName,  string lastName);\r\n    function selectOrgApplicantCount(address _orgAddress) external view returns (uint32 appCount);\r\n}\r\n\r\ncontract ProcessApplicants is Pausable {\r\n    // SafeMath32 Library\r\n    using SafeMath32 for uint32;\r\n\r\n    // mappings\r\n    mapping (address => uint32) credentailOrgToApplicantPosition;\r\n\r\n    // events\r\n    event ProcessCredentialApplicant(address orgAddress, address ApplicantAddress, uint32 position, string detail);\r\n    event ProcessCredentialDetail(address orgAddress,string detail);\r\n\r\n    // variables\r\n    address private credentialOrgFactoryAddress;\r\n    address private credentialFactoryAddress;\r\n    address private applicantFatoryAddress;\r\n\r\n    // modifiers\r\n    /**\r\n    * @dev Modifer onlyBy for Access Control\r\n    */\r\n    modifier onlyBy(address _credentialOrgAddress){\r\n        uint32 foundAccount = 0;\r\n        if (cof.isCredentialOrg(msg.sender)){\r\n            foundAccount = 1;\r\n        }\r\n        if (foundAccount == 0) revert(\"Not Authorized CredentialOrg\");\r\n        _;\r\n    }\r\n    // References for the other contracts\r\n    ApplicantFactory af;\r\n    CredentialFactory cf;\r\n    CredentialOrgFactory cof;\r\n\r\n\r\n    // constructor\r\n    constructor () public {\r\n    }\r\n\r\n    // functions\r\n    /**\r\n    * @dev Gets Owner Address of Contract\r\n    * @return returnedOwner returns owner of contract address.\r\n    */\r\n    function getOwner()\r\n    public view\r\n    returns (address returnedOwner)\r\n    {\r\n        returnedOwner = owner;\r\n    }\r\n\r\n    /**\r\n    * @dev Allows owner to set addresses needed for ProcessCredentials contract.\r\n    * @param _credentialOrgContractAddress address of CredentialOrgFactory (set on deploy).\r\n    * @param _credentialContractAddress address of CredentialFactory (set on deploy).\r\n    * @param _applicantContractAddress address of ApplicantFactory (set on deploy).\r\n    */\r\n    function setAddress(address _credentialOrgContractAddress, address _credentialContractAddress, address _applicantContractAddress) \r\n    public onlyOwner \r\n    {\r\n        if (msg.sender == owner){\r\n            credentialOrgFactoryAddress = _credentialOrgContractAddress;\r\n            credentialFactoryAddress = _credentialContractAddress;\r\n            applicantFatoryAddress = _applicantContractAddress;\r\n        }\r\n        af = ApplicantFactory(applicantFatoryAddress);\r\n        cf = CredentialFactory(credentialFactoryAddress);\r\n        cof = CredentialOrgFactory(credentialOrgFactoryAddress);\r\n\r\n    }    \r\n\r\n    /**\r\n    * @dev Allows resetting of Applicant Position lookup.\r\n    * @param _position positon at which to start processing.\r\n    */\r\n    function updateApplicantProcessingPosition(uint32 _position)\r\n    public whenNotPaused\r\n    {\r\n        // since we only work on own data, reprocessing isn't an issue.  \r\n        // Do want to relook at this. will probably want to limit this\r\n        // to just a few backwards.   maybe just minus 1.\r\n        require(_position >= 0, \"updateApplicantProcessingPosition: (FAIL) position has to be 0 or greater\");\r\n        credentailOrgToApplicantPosition[msg.sender] = _position;\r\n    }\r\n\r\n    /**\r\n    * @dev Allows credentialOrg to select next Applicant (or sends back blank of not available/error)\r\n    */\r\n    function selectCredentialOrgNextApplicant()\r\n    public\r\n    returns (address studentAddress, string SSN, string collegeStudentID, string firstName,  string lastName, uint32 insertDate)\r\n    {\r\n        if (af.selectOrgApplicantCount(msg.sender) >= credentailOrgToApplicantPosition[msg.sender]){\r\n            (studentAddress, SSN, collegeStudentID, firstName, lastName) = af.selectApplicantByOrgAndPosition(msg.sender, credentailOrgToApplicantPosition[msg.sender]);\r\n            credentailOrgToApplicantPosition[msg.sender] = credentailOrgToApplicantPosition[msg.sender].add(1);\r\n        } else {\r\n            studentAddress = 0;\r\n            SSN = \"\";\r\n            collegeStudentID = \"\";\r\n            firstName = \"\";\r\n            lastName = \"\";\r\n            emit ProcessCredentialDetail (msg.sender, \"selectCredentialOrgNextApplicant (FAIL) No Applicants to Process.\");\r\n        }\r\n        return (studentAddress, SSN, collegeStudentID, firstName, lastName, insertDate);\r\n    }\r\n\r\n    /**\r\n    * @dev allows the selection of an applicantCredential\r\n    * @param _credentialOrg credentialOrg address\r\n    * @param _credentialPosition position of credential in CredentialOrgs Credentials\r\n    * @return credentialLevel the credential level \r\n    * @return credentialTitle the credential title\r\n    * @return credentialDivision the credential Division\r\n    */\r\n    function selectCredentialbyOrgAndPosition(address _credentialOrg, uint32 _credentialPosition)\r\n    public view\r\n    returns (string credentialLevel, string credentialTitle, string credentialDivision)\r\n    {\r\n        (credentialLevel, credentialTitle, credentialDivision, , ) = cf.selectCredential(_credentialOrg, _credentialPosition);\r\n\r\n        return (credentialLevel, credentialTitle, credentialDivision);\r\n    }\r\n\r\n    /**\r\n    * @dev allows the selection of an applicantCredential\r\n    * @param _credentialOrg credentialOrg address\r\n    * @return applicant the applicant address\r\n    * @return firstName the applicant First Name\r\n    * @return lastName the applicant lastName\r\n    */\r\n    function selectApplicantbyOrg(address _credentialOrg)\r\n    public view\r\n    returns (address applicant, string SSN, string collegeStudentID, string firstName, string lastName)\r\n    {\r\n        (applicant, SSN, collegeStudentID, firstName, lastName) = af.selectApplicantByOrgAndPosition(_credentialOrg, credentailOrgToApplicantPosition[_credentialOrg]);\r\n        return (applicant, SSN, collegeStudentID, firstName, lastName);\r\n    }\r\n\r\n\r\n\r\n\r\n}",
  "sourcePath": "C:\\Projects\\CredentialVerify\\contracts\\ProcessApplicants.sol",
  "compiler": {
    "name": "solc",
    "version": "0.4.24+commit.e67f0147.Emscripten.clang"
  },
  "schemaVersion": "2.0.1",
  "updatedAt": "2018-08-20T20:45:55.775Z"
}