{
  "contractName": "ProcessApplicants",
  "abi": [
    {
      "constant": false,
      "inputs": [],
      "name": "unpause",
      "outputs": [],
      "payable": false,
      "stateMutability": "nonpayable",
      "type": "function"
    },
    {
      "constant": true,
      "inputs": [],
      "name": "paused",
      "outputs": [
        {
          "name": "",
          "type": "bool"
        }
      ],
      "payable": false,
      "stateMutability": "view",
      "type": "function"
    },
    {
      "constant": false,
      "inputs": [],
      "name": "pause",
      "outputs": [],
      "payable": false,
      "stateMutability": "nonpayable",
      "type": "function"
    },
    {
      "constant": true,
      "inputs": [],
      "name": "owner",
      "outputs": [
        {
          "name": "",
          "type": "address"
        }
      ],
      "payable": false,
      "stateMutability": "view",
      "type": "function"
    },
    {
      "constant": false,
      "inputs": [
        {
          "name": "newOwner",
          "type": "address"
        }
      ],
      "name": "transferOwnership",
      "outputs": [],
      "payable": false,
      "stateMutability": "nonpayable",
      "type": "function"
    },
    {
      "inputs": [],
      "payable": false,
      "stateMutability": "nonpayable",
      "type": "constructor"
    },
    {
      "anonymous": false,
      "inputs": [
        {
          "indexed": false,
          "name": "orgAddress",
          "type": "address"
        },
        {
          "indexed": false,
          "name": "detail",
          "type": "string"
        }
      ],
      "name": "ProcessCredentialEvent",
      "type": "event"
    },
    {
      "anonymous": false,
      "inputs": [],
      "name": "Pause",
      "type": "event"
    },
    {
      "anonymous": false,
      "inputs": [],
      "name": "Unpause",
      "type": "event"
    },
    {
      "anonymous": false,
      "inputs": [
        {
          "indexed": true,
          "name": "previousOwner",
          "type": "address"
        },
        {
          "indexed": true,
          "name": "newOwner",
          "type": "address"
        }
      ],
      "name": "OwnershipTransferred",
      "type": "event"
    },
    {
      "constant": true,
      "inputs": [],
      "name": "getOwner",
      "outputs": [
        {
          "name": "returnedOwner",
          "type": "address"
        }
      ],
      "payable": false,
      "stateMutability": "view",
      "type": "function"
    },
    {
      "constant": false,
      "inputs": [
        {
          "name": "_credentialOrgContractAddress",
          "type": "address"
        },
        {
          "name": "_credentialContractAddress",
          "type": "address"
        },
        {
          "name": "_applicantContractAddress",
          "type": "address"
        }
      ],
      "name": "setAddress",
      "outputs": [],
      "payable": false,
      "stateMutability": "nonpayable",
      "type": "function"
    },
    {
      "constant": true,
      "inputs": [],
      "name": "selectCredentialOrgNextApplicant",
      "outputs": [
        {
          "name": "studentAddress",
          "type": "address"
        },
        {
          "name": "SSN",
          "type": "string"
        },
        {
          "name": "collegeStudentID",
          "type": "string"
        },
        {
          "name": "firstName",
          "type": "string"
        },
        {
          "name": "lastName",
          "type": "string"
        },
        {
          "name": "insertDate",
          "type": "uint32"
        }
      ],
      "payable": false,
      "stateMutability": "view",
      "type": "function"
    },
    {
      "constant": false,
      "inputs": [],
      "name": "moveToNextApplicant",
      "outputs": [],
      "payable": false,
      "stateMutability": "nonpayable",
      "type": "function"
    },
    {
      "constant": true,
      "inputs": [
        {
          "name": "_credentialOrg",
          "type": "address"
        },
        {
          "name": "_credentialPosition",
          "type": "uint32"
        }
      ],
      "name": "selectCredentialbyOrgAndPosition",
      "outputs": [
        {
          "name": "credentialLevel",
          "type": "string"
        },
        {
          "name": "credentialTitle",
          "type": "string"
        },
        {
          "name": "credentialDivision",
          "type": "string"
        }
      ],
      "payable": false,
      "stateMutability": "view",
      "type": "function"
    },
    {
      "constant": true,
      "inputs": [
        {
          "name": "_credentialOrg",
          "type": "address"
        }
      ],
      "name": "selectApplicantbyOrg",
      "outputs": [
        {
          "name": "applicant",
          "type": "address"
        },
        {
          "name": "SSN",
          "type": "string"
        },
        {
          "name": "collegeStudentID",
          "type": "string"
        },
        {
          "name": "firstName",
          "type": "string"
        },
        {
          "name": "lastName",
          "type": "string"
        }
      ],
      "payable": false,
      "stateMutability": "view",
      "type": "function"
    }
  ],
  "bytecode": "0x608060405260008060146101000a81548160ff02191690831515021790555034801561002a57600080fd5b50336000806101000a81548173ffffffffffffffffffffffffffffffffffffffff021916908373ffffffffffffffffffffffffffffffffffffffff160217905550611a108061007a6000396000f3006080604052600436106100af576000357c0100000000000000000000000000000000000000000000000000000000900463ffffffff1680633be08dab146100b45780633f4ba83a1461013757806341af3ed81461014e5780635c975abb146103815780637821fe02146103b057806380a71e7e146105545780638456cb591461056b578063893d20e8146105825780638da5cb5b146105d9578063e27716d714610630578063f2fde38b1461084a575b600080fd5b3480156100c057600080fd5b50610135600480360381019080803573ffffffffffffffffffffffffffffffffffffffff169060200190929190803573ffffffffffffffffffffffffffffffffffffffff169060200190929190803573ffffffffffffffffffffffffffffffffffffffff16906020019092919050505061088d565b005b34801561014357600080fd5b5061014c610b2f565b005b34801561015a57600080fd5b5061018f600480360381019080803573ffffffffffffffffffffffffffffffffffffffff169060200190929190505050610bed565b604051808673ffffffffffffffffffffffffffffffffffffffff1673ffffffffffffffffffffffffffffffffffffffff16815260200180602001806020018060200180602001858103855289818151815260200191508051906020019080838360005b8381101561020d5780820151818401526020810190506101f2565b50505050905090810190601f16801561023a5780820380516001836020036101000a031916815260200191505b50858103845288818151815260200191508051906020019080838360005b83811015610273578082015181840152602081019050610258565b50505050905090810190601f1680156102a05780820380516001836020036101000a031916815260200191505b50858103835287818151815260200191508051906020019080838360005b838110156102d95780820151818401526020810190506102be565b50505050905090810190601f1680156103065780820380516001836020036101000a031916815260200191505b50858103825286818151815260200191508051906020019080838360005b8381101561033f578082015181840152602081019050610324565b50505050905090810190601f16801561036c5780820380516001836020036101000a031916815260200191505b50995050505050505050505060405180910390f35b34801561038d57600080fd5b50610396610ec9565b604051808215151515815260200191505060405180910390f35b3480156103bc57600080fd5b50610401600480360381019080803573ffffffffffffffffffffffffffffffffffffffff169060200190929190803563ffffffff169060200190929190505050610edc565b60405180806020018060200180602001848103845287818151815260200191508051906020019080838360005b8381101561044957808201518184015260208101905061042e565b50505050905090810190601f1680156104765780820380516001836020036101000a031916815260200191505b50848103835286818151815260200191508051906020019080838360005b838110156104af578082015181840152602081019050610494565b50505050905090810190601f1680156104dc5780820380516001836020036101000a031916815260200191505b50848103825285818151815260200191508051906020019080838360005b838110156105155780820151818401526020810190506104fa565b50505050905090810190601f1680156105425780820380516001836020036101000a031916815260200191505b50965050505050505060405180910390f35b34801561056057600080fd5b50610569611117565b005b34801561057757600080fd5b506105806111de565b005b34801561058e57600080fd5b5061059761129e565b604051808273ffffffffffffffffffffffffffffffffffffffff1673ffffffffffffffffffffffffffffffffffffffff16815260200191505060405180910390f35b3480156105e557600080fd5b506105ee6112c7565b604051808273ffffffffffffffffffffffffffffffffffffffff1673ffffffffffffffffffffffffffffffffffffffff16815260200191505060405180910390f35b34801561063c57600080fd5b506106456112ec565b604051808773ffffffffffffffffffffffffffffffffffffffff1673ffffffffffffffffffffffffffffffffffffffff168152602001806020018060200180602001806020018663ffffffff1663ffffffff16815260200185810385528a818151815260200191508051906020019080838360005b838110156106d55780820151818401526020810190506106ba565b50505050905090810190601f1680156107025780820380516001836020036101000a031916815260200191505b50858103845289818151815260200191508051906020019080838360005b8381101561073b578082015181840152602081019050610720565b50505050905090810190601f1680156107685780820380516001836020036101000a031916815260200191505b50858103835288818151815260200191508051906020019080838360005b838110156107a1578082015181840152602081019050610786565b50505050905090810190601f1680156107ce5780820380516001836020036101000a031916815260200191505b50858103825287818151815260200191508051906020019080838360005b838110156108075780820151818401526020810190506107ec565b50505050905090810190601f1680156108345780820380516001836020036101000a031916815260200191505b509a505050505050505050505060405180910390f35b34801561085657600080fd5b5061088b600480360381019080803573ffffffffffffffffffffffffffffffffffffffff169060200190929190505050611865565b005b6000809054906101000a900473ffffffffffffffffffffffffffffffffffffffff1673ffffffffffffffffffffffffffffffffffffffff163373ffffffffffffffffffffffffffffffffffffffff161415156108e857600080fd5b6000809054906101000a900473ffffffffffffffffffffffffffffffffffffffff1673ffffffffffffffffffffffffffffffffffffffff163373ffffffffffffffffffffffffffffffffffffffff161415610a015782600260006101000a81548173ffffffffffffffffffffffffffffffffffffffff021916908373ffffffffffffffffffffffffffffffffffffffff16021790555081600360006101000a81548173ffffffffffffffffffffffffffffffffffffffff021916908373ffffffffffffffffffffffffffffffffffffffff16021790555080600460006101000a81548173ffffffffffffffffffffffffffffffffffffffff021916908373ffffffffffffffffffffffffffffffffffffffff1602179055505b600460009054906101000a900473ffffffffffffffffffffffffffffffffffffffff16600560006101000a81548173ffffffffffffffffffffffffffffffffffffffff021916908373ffffffffffffffffffffffffffffffffffffffff160217905550600360009054906101000a900473ffffffffffffffffffffffffffffffffffffffff16600660006101000a81548173ffffffffffffffffffffffffffffffffffffffff021916908373ffffffffffffffffffffffffffffffffffffffff160217905550600260009054906101000a900473ffffffffffffffffffffffffffffffffffffffff16600760006101000a81548173ffffffffffffffffffffffffffffffffffffffff021916908373ffffffffffffffffffffffffffffffffffffffff160217905550505050565b6000809054906101000a900473ffffffffffffffffffffffffffffffffffffffff1673ffffffffffffffffffffffffffffffffffffffff163373ffffffffffffffffffffffffffffffffffffffff16141515610b8a57600080fd5b600060149054906101000a900460ff161515610ba557600080fd5b60008060146101000a81548160ff0219169083151502179055507f7805862f689e2f13df9f062ff482ad3ad112aca9e0847911ed832e158c525b3360405160405180910390a1565b6000606080606080600560009054906101000a900473ffffffffffffffffffffffffffffffffffffffff1673ffffffffffffffffffffffffffffffffffffffff1663f76806d987600160008a73ffffffffffffffffffffffffffffffffffffffff1673ffffffffffffffffffffffffffffffffffffffff16815260200190815260200160002060009054906101000a900463ffffffff166040518363ffffffff167c0100000000000000000000000000000000000000000000000000000000028152600401808373ffffffffffffffffffffffffffffffffffffffff1673ffffffffffffffffffffffffffffffffffffffff1681526020018263ffffffff1663ffffffff16815260200192505050600060405180830381600087803b158015610d1557600080fd5b505af1158015610d29573d6000803e3d6000fd5b505050506040513d6000823e3d601f19601f8201168201806040525060a0811015610d5357600080fd5b81019080805190602001909291908051640100000000811115610d7557600080fd5b82810190506020810184811115610d8b57600080fd5b8151856001820283011164010000000082111715610da857600080fd5b50509291906020018051640100000000811115610dc457600080fd5b82810190506020810184811115610dda57600080fd5b8151856001820283011164010000000082111715610df757600080fd5b50509291906020018051640100000000811115610e1357600080fd5b82810190506020810184811115610e2957600080fd5b8151856001820283011164010000000082111715610e4657600080fd5b50509291906020018051640100000000811115610e6257600080fd5b82810190506020810184811115610e7857600080fd5b8151856001820283011164010000000082111715610e9557600080fd5b5050929190505050809550819650829750839850849950505050505084848484849450945094509450945091939590929450565b600060149054906101000a900460ff1681565b6060806060600660009054906101000a900473ffffffffffffffffffffffffffffffffffffffff1673ffffffffffffffffffffffffffffffffffffffff1663e7c3259386866040518363ffffffff167c0100000000000000000000000000000000000000000000000000000000028152600401808373ffffffffffffffffffffffffffffffffffffffff1673ffffffffffffffffffffffffffffffffffffffff1681526020018263ffffffff1663ffffffff16815260200192505050600060405180830381600087803b158015610fb257600080fd5b505af1158015610fc6573d6000803e3d6000fd5b505050506040513d6000823e3d601f19601f8201168201806040525060a0811015610ff057600080fd5b81019080805164010000000081111561100857600080fd5b8281019050602081018481111561101e57600080fd5b815185600182028301116401000000008211171561103b57600080fd5b5050929190602001805164010000000081111561105757600080fd5b8281019050602081018481111561106d57600080fd5b815185600182028301116401000000008211171561108a57600080fd5b505092919060200180516401000000008111156110a657600080fd5b828101905060208101848111156110bc57600080fd5b81518560018202830111640100000000821117156110d957600080fd5b505092919060200180519060200190929190805190602001909291905050509050508093508194508295505050508282829250925092509250925092565b61117f60018060003373ffffffffffffffffffffffffffffffffffffffff1673ffffffffffffffffffffffffffffffffffffffff16815260200190815260200160002060009054906101000a900463ffffffff1663ffffffff166119ba90919063ffffffff16565b600160003373ffffffffffffffffffffffffffffffffffffffff1673ffffffffffffffffffffffffffffffffffffffff16815260200190815260200160002060006101000a81548163ffffffff021916908363ffffffff160217905550565b6000809054906101000a900473ffffffffffffffffffffffffffffffffffffffff1673ffffffffffffffffffffffffffffffffffffffff163373ffffffffffffffffffffffffffffffffffffffff1614151561123957600080fd5b600060149054906101000a900460ff1615151561125557600080fd5b6001600060146101000a81548160ff0219169083151502179055507f6985a02210a168e66602d3235cb6db0e70f92b3ba4d376a33c0f3d9434bff62560405160405180910390a1565b60008060009054906101000a900473ffffffffffffffffffffffffffffffffffffffff16905090565b6000809054906101000a900473ffffffffffffffffffffffffffffffffffffffff1681565b60006060806060806000600160003373ffffffffffffffffffffffffffffffffffffffff1673ffffffffffffffffffffffffffffffffffffffff16815260200190815260200160002060009054906101000a900463ffffffff1663ffffffff16600560009054906101000a900473ffffffffffffffffffffffffffffffffffffffff1673ffffffffffffffffffffffffffffffffffffffff16631e0beabe336040518263ffffffff167c0100000000000000000000000000000000000000000000000000000000028152600401808273ffffffffffffffffffffffffffffffffffffffff1673ffffffffffffffffffffffffffffffffffffffff168152602001915050602060405180830381600087803b15801561140957600080fd5b505af115801561141d573d6000803e3d6000fd5b505050506040513d602081101561143357600080fd5b810190808051906020019092919050505063ffffffff1610151561171257600560009054906101000a900473ffffffffffffffffffffffffffffffffffffffff1673ffffffffffffffffffffffffffffffffffffffff1663f76806d933600160003373ffffffffffffffffffffffffffffffffffffffff1673ffffffffffffffffffffffffffffffffffffffff16815260200190815260200160002060009054906101000a900463ffffffff166040518363ffffffff167c0100000000000000000000000000000000000000000000000000000000028152600401808373ffffffffffffffffffffffffffffffffffffffff1673ffffffffffffffffffffffffffffffffffffffff1681526020018263ffffffff1663ffffffff16815260200192505050600060405180830381600087803b15801561157157600080fd5b505af1158015611585573d6000803e3d6000fd5b505050506040513d6000823e3d601f19601f8201168201806040525060a08110156115af57600080fd5b810190808051906020019092919080516401000000008111156115d157600080fd5b828101905060208101848111156115e757600080fd5b815185600182028301116401000000008211171561160457600080fd5b5050929190602001805164010000000081111561162057600080fd5b8281019050602081018481111561163657600080fd5b815185600182028301116401000000008211171561165357600080fd5b5050929190602001805164010000000081111561166f57600080fd5b8281019050602081018481111561168557600080fd5b81518560018202830111640100000000821117156116a257600080fd5b505092919060200180516401000000008111156116be57600080fd5b828101905060208101848111156116d457600080fd5b81518560018202830111640100000000821117156116f157600080fd5b5050929190505050809650819750829850839950849a50505050505061184b565b60009550602060405190810160405280600081525094506020604051908101604052806000815250935060206040519081016040528060008152509250602060405190810160405280600081525091507f5436e8c6b665c891cdcb2ada699f879fdd5ff0ab3426e9a6a14215aef65b5f0e33604051808273ffffffffffffffffffffffffffffffffffffffff1673ffffffffffffffffffffffffffffffffffffffff16815260200180602001828103825260418152602001807f73656c65637443726564656e7469616c4f72674e6578744170706c6963616e7481526020017f20284641494c29204e6f204170706c6963616e747320746f2050726f6365737381526020017f2e000000000000000000000000000000000000000000000000000000000000008152506060019250505060405180910390a15b858585858585955095509550955095509550909192939495565b6000809054906101000a900473ffffffffffffffffffffffffffffffffffffffff1673ffffffffffffffffffffffffffffffffffffffff163373ffffffffffffffffffffffffffffffffffffffff161415156118c057600080fd5b600073ffffffffffffffffffffffffffffffffffffffff168173ffffffffffffffffffffffffffffffffffffffff16141515156118fc57600080fd5b8073ffffffffffffffffffffffffffffffffffffffff166000809054906101000a900473ffffffffffffffffffffffffffffffffffffffff1673ffffffffffffffffffffffffffffffffffffffff167f8be0079c531659141344cd1fd0a4f28419497f9722a3daafe3b4186f6b6457e060405160405180910390a3806000806101000a81548173ffffffffffffffffffffffffffffffffffffffff021916908373ffffffffffffffffffffffffffffffffffffffff16021790555050565b60008082840190508363ffffffff168163ffffffff16101515156119da57fe5b80915050929150505600a165627a7a72305820bf974bcc455f9728437dfcdbf8c277b444bd334e6dbf487198a94eb7fd662e280029",
  "source": "pragma solidity ^0.4.21;\r\n/**\r\n * @title ProcessCredentials\r\n * @dev The ProcessCredentials contracts allows gathering of all the information between \r\n *      CredentialOrgFactory, CredentialFactory, ApplicantFactory.\r\n */\r\nimport \"./Pausable.sol\";\r\nimport \"./SafeMath32.sol\";\r\n\r\n// Allows interface between Process Credentials and CredentialOrgFactory.\r\n// not used at this time, will be when testing moves to Javascript.\r\ninterface CredentialOrgFactory{\r\n    function isCredentialOrg(address _credentialOrgAddress) external view returns (bool IsOrgAddress);\r\n}\r\n\r\n// Allows interface between Process Credentials and CredentialFactory.\r\ninterface CredentialFactory{\r\n    function selectCredential(address _credentialOrgAddress, uint32 _position) \r\n    external view \r\n    returns (string credentialLevel, string credentialTitle, string credentialDivision, uint32 credentialInsertDate, bool isActive);\r\n}\r\n\r\n// Allows interface between Process Credentials and ApplicantFactory.\r\ninterface ApplicantFactory{\r\n    function selectApplicantByOrgAndPosition(address _orgAddress, uint32 _position) \r\n    external view \r\n    returns (address studentAddress, string SSN, string collegeStudentID, string firstName,  string lastName);\r\n    function selectOrgApplicantCount(address _orgAddress) external view returns (uint32 appCount);\r\n}\r\n\r\ncontract ProcessApplicants is Pausable {\r\n    // SafeMath32 Library\r\n    using SafeMath32 for uint32;\r\n\r\n    // mappings\r\n    mapping (address => uint32) credentailOrgToApplicantPosition;\r\n\r\n    // events\r\n    event ProcessCredentialEvent(address orgAddress,string detail);\r\n\r\n    // variables\r\n    address private credentialOrgFactoryAddress;\r\n    address private credentialFactoryAddress;\r\n    address private applicantFatoryAddress;\r\n\r\n    // modifiers\r\n    /**\r\n    * @dev Modifer onlyBy for Access Control\r\n    */\r\n    modifier onlyBy(address _credentialOrgAddress){\r\n        uint32 foundAccount = 0;\r\n        if (cof.isCredentialOrg(_credentialOrgAddress)){\r\n            foundAccount = 1;\r\n        }\r\n        require(foundAccount == 1,\"Not Authorized CredentialOrg\");\r\n        _;\r\n    }\r\n    // References for the other contracts\r\n    ApplicantFactory af;\r\n    CredentialFactory cf;\r\n    CredentialOrgFactory cof;\r\n\r\n\r\n    // constructor\r\n    constructor () public {\r\n    }\r\n\r\n    // functions\r\n    /**\r\n    * @dev Gets Owner Address of Contract\r\n    * @return returnedOwner returns owner of contract address.\r\n    */\r\n    function getOwner()\r\n    public view\r\n    returns (address returnedOwner)\r\n    {\r\n        returnedOwner = owner;\r\n    }\r\n\r\n    /**\r\n    * @dev Allows owner to set addresses needed for ProcessCredentials contract.\r\n    * @param _credentialOrgContractAddress address of CredentialOrgFactory (set on deploy).\r\n    * @param _credentialContractAddress address of CredentialFactory (set on deploy).\r\n    * @param _applicantContractAddress address of ApplicantFactory (set on deploy).\r\n    */\r\n    function setAddress(address _credentialOrgContractAddress, address _credentialContractAddress, address _applicantContractAddress) \r\n    public onlyOwner \r\n    {\r\n        if (msg.sender == owner){\r\n            credentialOrgFactoryAddress = _credentialOrgContractAddress;\r\n            credentialFactoryAddress = _credentialContractAddress;\r\n            applicantFatoryAddress = _applicantContractAddress;\r\n        }\r\n        af = ApplicantFactory(applicantFatoryAddress);\r\n        cf = CredentialFactory(credentialFactoryAddress);\r\n        cof = CredentialOrgFactory(credentialOrgFactoryAddress);\r\n\r\n    }    \r\n\r\n    /**\r\n    * @dev Allows credentialOrg to select next Applicant (or sends back blank of not available/error)\r\n    */\r\n    function selectCredentialOrgNextApplicant()\r\n    public view\r\n    returns (address studentAddress, string SSN, string collegeStudentID, string firstName,  string lastName, uint32 insertDate)\r\n    {\r\n        if (af.selectOrgApplicantCount(msg.sender) >= credentailOrgToApplicantPosition[msg.sender]){\r\n            (studentAddress, SSN, collegeStudentID, firstName, lastName) = af.selectApplicantByOrgAndPosition(msg.sender, credentailOrgToApplicantPosition[msg.sender]);\r\n        } else {\r\n            studentAddress = 0;\r\n            SSN = \"\";\r\n            collegeStudentID = \"\";\r\n            firstName = \"\";\r\n            lastName = \"\";\r\n            emit ProcessCredentialEvent (msg.sender, \"selectCredentialOrgNextApplicant (FAIL) No Applicants to Process.\");\r\n        }\r\n        return (studentAddress, SSN, collegeStudentID, firstName, lastName, insertDate);\r\n    }\r\n    /**\r\n    * @dev updates the Applicant position to the next position.\r\n    */\r\n    function moveToNextApplicant()\r\n    public\r\n    {\r\n        credentailOrgToApplicantPosition[msg.sender] = credentailOrgToApplicantPosition[msg.sender].add(1);\r\n    }\r\n\r\n    /**\r\n    * @dev allows the selection of an applicantCredential\r\n    * @param _credentialOrg credentialOrg address\r\n    * @param _credentialPosition position of credential in CredentialOrgs Credentials\r\n    * @return credentialLevel the credential level \r\n    * @return credentialTitle the credential title\r\n    * @return credentialDivision the credential Division\r\n    */\r\n    function selectCredentialbyOrgAndPosition(address _credentialOrg, uint32 _credentialPosition)\r\n    public view\r\n    returns (string credentialLevel, string credentialTitle, string credentialDivision)\r\n    {\r\n        (credentialLevel, credentialTitle, credentialDivision, , ) = cf.selectCredential(_credentialOrg, _credentialPosition);\r\n\r\n        return (credentialLevel, credentialTitle, credentialDivision);\r\n    }\r\n\r\n    /**\r\n    * @dev allows the selection of an applicantCredential\r\n    * @param _credentialOrg credentialOrg address\r\n    * @return applicant the applicant address\r\n    * @return firstName the applicant First Name\r\n    * @return lastName the applicant lastName\r\n    */\r\n    function selectApplicantbyOrg(address _credentialOrg)\r\n    public view\r\n    returns (address applicant, string SSN, string collegeStudentID, string firstName, string lastName)\r\n    {\r\n        (applicant, SSN, collegeStudentID, firstName, lastName) = af.selectApplicantByOrgAndPosition(_credentialOrg, credentailOrgToApplicantPosition[_credentialOrg]);\r\n        return (applicant, SSN, collegeStudentID, firstName, lastName);\r\n    }\r\n\r\n\r\n\r\n\r\n}",
  "sourcePath": "C:\\Projects\\CredentialVerify\\contracts\\ProcessApplicants.sol",
  "compiler": {
    "name": "solc",
    "version": "0.4.24+commit.e67f0147.Emscripten.clang"
  },
  "schemaVersion": "2.0.1",
  "updatedAt": "2018-08-22T15:50:14.137Z"
}